:020000040800F2
:1000000000800020B52C0008C52B0008D12B00086B
:1000100000000000000000000000000000000000E0
:10002000000000000000000000000000ED2B0008B0
:100030000000000000000000F72B0008012C000861
:10004000052D0008052D0008052D0008052D0008C8
:10005000052D0008052D0008052D0008052D0008B8
:10006000052D0008052D0008152C0008052D000899
:10007000052D0008052D0008052D0008052D000898
:10008000052D0008052D0008052D0008052D000888
:10009000052D0008052D0008052D0008052D000878
:1000A000052D0008052D0008052D0008052D000868
:0C00B000052D0008052D0008052D000896
:1000BC0010B5064C2378002B07D1054B002B02D032
:1000CC00044800E000BF0123237010BD1C00002079
:1000DC0000000000602D0008044B10B5002B03D06D
:1000EC000349044800E000BF10BDC04600000000FA
:1000FC0020000020602D0008002243088B4274D39E
:10010C0003098B425FD3030A8B4244D3030B8B420C
:10011C0028D3030C8B420DD3FF22090212BA030C15
:10012C008B4202D31212090265D0030B8B4219D3F6
:10013C0000E0090AC30B8B4201D3CB03C01A524116
:10014C00830B8B4201D38B03C01A5241430B8B425E
:10015C0001D34B03C01A5241030B8B4201D30B0347
:10016C00C01A5241C30A8B4201D3CB02C01A52416E
:10017C00830A8B4201D38B02C01A5241430A8B4231
:10018C0001D34B02C01A5241030A8B4201D30B021A
:10019C00C01A5241CDD2C3098B4201D3CB01C01A34
:1001AC00524183098B4201D38B01C01A524143093E
:1001BC008B4201D34B01C01A524103098B4201D32C
:1001CC000B01C01A5241C3088B4201D3CB00C01A99
:1001DC00524183088B4201D38B00C01A5241430811
:1001EC008B4201D34B00C01A5241411A00D2014636
:1001FC00524110467047FFE701B5002000F006F8A9
:10020C0002BDC0460029F7D076E770477047C0465C
:10021C00F8B557464E464546DE46E0B54702460021
:10022C0088467F0A360EC40F002E47D0FF2E24D0EE
:10023C00FB008027FF041F43002399469A467F3E0C
:10024C0043465D025800DB0F6D0A000E984643D002
:10025C00FF283BD0EB0080250022ED041D437F38A6
:10026C003618731C41469B464B46614013430F2B7B
:10027C0064D875489B00C3589F46002F42D1082371
:10028C009946063BFF269A46DAE74146022A28D0D1
:10029C00032A00D1CEE0012A00D0ACE011400020AE
:1002AC000022CCB24002D205400AE407104320439E
:1002BC003CBC90469946A246AB46F8BD002F15D1E2
:1002CC0004239946033B00269A46B9E7FF200222F5
:1002DC00002DC5D00322C3E7002D19D10020012227
:1002EC00BEE70124FF220C400020DBE7380000F0C1
:1002FC00FFF87626431F9F4000237642361A994614
:10030C009A469DE70C239946093BFF269A4697E7A8
:10031C00280000F0EDF8431F9D4076235B42181A2D
:10032C0000229DE780200024C003FF22BAE73D0095
:10033C005246ABE73D0021005246A7E73B0C9C46DA
:10034C002A04120C2B0C1400604665463F043F0C2B
:10035C007C4342435D437B43270C9B18FF18BA42F6
:10036C0003D980235B029C46654424043A04240C84
:10037C00121993015C1EA3413F0C920E7D191A4376
:10038C00AD0115432B0104D501235E466A081D40BF
:10039C00154332007F32002A25DD6B0704D00F2372
:1003AC002B40042B00D004352B0103D53200274BF6
:1003BC0080321D40FE2A94DC0124A801400AD2B2EE
:1003CC000C406FE78020C003074207D0054205D1DF
:1003DC0028434002400A4446FF2263E73843400268
:1003EC00400AFF225EE70124A31A1B2B05DD0C40FB
:1003FC000022002056E75E46CBE72A002020DA4098
:10040C00C31A9D402B005D1EAB4113435A0704D009
:10041C000F221A40042A00D004335A0104D50124B7
:10042C0001220C4000203DE701249B01580A0C409E
:10043C00002237E780200124C00328434002400AF1
:10044C000C40FF222EE7C046C42D0008FFFFFFF72B
:10045C0070B5002830D0C317C4185C40C50F2000FD
:10046C0000F046F89E231B1A962B0DDC9622D21A0E
:10047C0094402A006402640ADBB26402DB05600A61
:10048C00D2071843104370BD992B19DC9922D21A4C
:10049C00002A29DD94402200144C1440510704D04A
:1004AC000F210A40042A00D00434620113D4A401A1
:1004BC00640ADBB22A00E0E7002200230024DCE718
:1004CC0005222100121AD140B922D21A9440621E80
:1004DC0094410C43DAE7054B2A001C409F23A401EE
:1004EC001B1A640ADBB2C8E72200D5E7FFFFFFFB4B
:1004FC001C2101231B04984201D3000C10391B0A48
:10050C00984201D3000A08391B09984201D300090B
:10051C00043902A2105C40187047C0460403020262
:10052C0001010101000000000000000080B500AFD7
:10053C00074B074A126810210A431A60002000F08A
:10054C0009F802F085FA00231800BD4680BDC046AC
:10055C000020024080B582B000AF786001F0EEF868
:10056C000200FA2399001000FFF7C6FD03001800E3
:10057C0000F0F0F8796801235B420022180000F0CB
:10058C00C3F800231800BD4602B080BD80B500AF93
:10059C00034B1B685A1C024B1A60C046BD4680BDFB
:1005AC005000002080B500AF024B1B681800BD4600
:1005BC0080BDC0465000002080B582B000AF020064
:1005CC00FB1D1A70064BFA1D127811001F220A40EF
:1005DC00012191400A001A60C046BD4602B080BDA0
:1005EC0000E100E0B0B582B000AF02003960FB1D45
:1005FC001A70FB1D1B787F2B32D92F4CFB1D1B78DF
:10060C001A000F231340083B99082B4AFB1D1B783B
:10061C0018000F230340083B9B0806339B00D3189C
:10062C0004331B68FA1D1278100003220240D2001A
:10063C00FF2090400200D2431A403B689B01FF20F0
:10064C001840FB1D1B781D0003232B40DB0098403A
:10065C0003001A438B1D9B00E31804331A6027E038
:10066C00164CFB1D1B785BB29B081449FA1D1278C3
:10067C0052B29208C03292005258F91D0978080003
:10068C0003210140C900FF2088400100C9431140EB
:10069C003A689201FF201040FA1D127815000322CF
:1006AC002A40D200904002000A43C0339B001A51EA
:1006BC00C046BD4602B0B0BD00ED00E000E100E078
:1006CC0080B582B000AF78607B68013B0C4A9342E6
:1006DC0001D9012310E00B4B7A68013A5A600123CF
:1006EC005B4203211800FFF77DFF064B00229A6046
:1006FC00044B07221A6000231800BD4602B080BDCF
:10070C00FFFFFF0010E000E080B584B000AFB960DF
:10071C007A600F23FB18021C1A70BA680F23FB189F
:10072C001B785BB211001800FFF75CFFC046BD469A
:10073C0004B080BD80B582B000AF0200FB1D1A7002
:10074C00FB1D1B785BB21800FFF736FFC046BD4699
:10075C0002B080BD80B582B000AF78607B681800B5
:10076C00FFF7AEFF03001800BD4602B080BD0000CD
:10077C0080B582B000AF78607B68042B06D1084B43
:10078C00074A126804210A431A6005E0044B044A24
:10079C00126804218A431A60C046BD4602B080BD6F
:1007AC0010E000E080B500AF00F003F8C046BD4695
:1007BC0080BD80B500AFC046BD4680BD80B584B05D
:1007CC0000AF78600023FB607B68002B01D1012314
:1007DC0042E07B682122022199547B681B681B68CC
:1007EC00FB60FB681E4A1340FB607B685A687B68A1
:1007FC009B681A437B68DB681A437B681B691A4346
:10080C007B685B691A437B689B691A437B68DB696D
:10081C001343FA681343FB607B681B68FA681A6021
:10082C007B68180000F0C0F87B6800229A627B6835
:10083C000022DA627B6800221A637B6800225A630A
:10084C007B6800229A637B682122012199547B6882
:10085C0020220021995400231800BD4604B080BD0D
:10086C000FC0FFFF80B584B000AF78607B68DB6B96
:10087C001B68FB607B681B681B68BB607B681B6C20
:10088C0004229A401300FA68134024D0BB68042257
:10089C00134020D07B681B681B682022134007D1B3
:1008AC007B681B687A681268126804218A431A6094
:1008BC007B68DB6B7A68126C042191400A005A60E9
:1008CC007B68DB6A002B00D16AE07B68DB6A7A68A4
:1008DC001000984764E07B681B6C02229A4013005E
:1008EC00FA6813402BD0BB680222134027D07B68D8
:1008FC001B681B68202213400BD17B681B687A682D
:10090C00126812680A218A431A607B68212201212D
:10091C0099547B68DB6B7A68126C022191400A0057
:10092C005A607B682022002199547B689B6A002BBB
:10093C0036D07B689B6A7A681000984730E07B68F9
:10094C001B6C08229A401300FA68134028D0BB682D
:10095C000822134024D07B681B687A6812681268DE
:10096C000E218A431A607B68DB6B7A68126C01215A
:10097C0091400A005A607B6801229A637B682122AD
:10098C00012199547B682022002199547B681B6BB0
:10099C00002B05D07B681B6B7A6810009847FFE72B
:1009AC00C046BD4604B080BD80B582B000AF786053
:1009BC007B681B681A00144B9A4210D87B681B6822
:1009CC00124A9446634414211800FFF795FB030068
:1009DC009A007B681A647B680D4ADA630FE07B68C7
:1009EC001B680C4A9446634414211800FFF784FBDF
:1009FC0003009A007B681A647B68074ADA63C04676
:100A0C00BD4602B080BDC04607040240F8FFFDBFE2
:100A1C0000000240F8FBFDBF0004024080B586B028
:100A2C0000AF7860396000237B610023FB600023FA
:100A3C003B6155E13B681B6801217A6991400A00D2
:100A4C001340FB60FB68002B00D146E13B685B6800
:100A5C00022B03D03B685B68122B23D17B69DA082D
:100A6C007B6808329200D3583B617B6907221340A4
:100A7C009B000F229A401300DA433B6913403B6101
:100A8C003B681A697B6907210B409B009A40130055
:100A9C003A6913433B617B69DA087B680832920040
:100AAC003969D1507B681B683B617B695B00032211
:100ABC009A401300DA433B6913403B613B685B6827
:100ACC0003221A407B695B009A4013003A69134376
:100ADC003B617B683A691A603B685B68012B0BD001
:100AEC003B685B68022B07D03B685B68112B03D01B
:100AFC003B685B68122B30D17B689B683B617B69E0
:100B0C005B0003229A401300DA433B6913403B61BC
:100B1C003B68DA687B695B009A4013003A691343BF
:100B2C003B617B683A699A607B685B683B61012238
:100B3C007B699A401300DA433B6913403B613B6885
:100B4C005B681B0901221A407B699A4013003A69C1
:100B5C0013433B617B683A695A607B68DB683B6195
:100B6C007B695B0003229A401300DA433B69134014
:100B7C003B613B689A687B695B009A4013003A6959
:100B8C0013433B617B683A69DA603B685A6880239F
:100B9C005B05134000D1A0E0574B574A92690121E5
:100BAC000A439A61544B9B6901221340BB60BB689A
:100BBC00524A7B699B0802339B009B583B617B69C3
:100BCC00032213409B000F229A401300DA433B6927
:100BDC0013403B617A689023DB059A4219D07B68FD
:100BEC00474A934213D07B68464A93420DD07B68A8
:100BFC00454A934207D07B68444A934201D104236F
:100C0C0008E0052306E0032304E0022302E00123AD
:100C1C0000E000237A6903210A40920093403A696C
:100C2C0013433B6135497B699B0802339B003A694E
:100C3C005A50374B1B683B61FB68DA433B691340E6
:100C4C003B613B685A6880235B02134003D03A69CE
:100C5C00FB6813433B612E4B3A691A602C4B5B6863
:100C6C003B61FB68DA433B6913403B613B685A6864
:100C7C0080239B02134003D03A69FB6813433B610A
:100C8C00234B3A695A60224B9B683B61FB68DA4301
:100C9C003B6913403B613B685A6880235B031340FC
:100CAC0003D03A69FB6813433B61194B3A699A606C
:100CBC00174BDB683B61FB68DA433B6913403B61D4
:100CCC003B685A6880239B03134003D03A69FB6846
:100CDC0013433B610E4B3A69DA607B6901337B61EC
:100CEC003B681A687B69DA40131E00D0A2E6C04646
:100CFC00BD4606B080BDC046001002400000014059
:100D0C000004004800080048000C0048001000488F
:100D1C000004014080B582B000AF7860080011007B
:100D2C00BB1C021C1A807B1C0A1C1A707B1C1B78B7
:100D3C00002B04D0BB1C1A887B689A6103E0BB1C97
:100D4C001A887B689A62C046BD4602B080BD80B5E9
:100D5C0082B000AF78600A00BB1C1A807B685A69AD
:100D6C00BB1C1B885A407B685A61C046BD4602B00A
:100D7C0080BD000080B586B000AF786000233B6179
:100D8C007B681B680122134000D18DE0C54B5B686A
:100D9C000C221340042B0ED0C24B5B680C22134068
:100DAC00082B16D1BF4B5A68C0235B021A40802314
:100DBC005B029A420DD1BB4B1A6880239B021340F5
:100DCC0000D170E07B685B68002B00D06BE00123E6
:100DDC0027E37B685B68012B07D1B24BB14A1268E1
:100DEC00802149020A431A602FE07B685B68002B64
:100DFC000CD1AC4BAB4A1268AB490A401A60A94BF8
:100E0C00A84A1268A9490A401A601EE07B685B6810
:100E1C00052B0ED1A34BA34A12688021C9020A43A9
:100E2C001A60A04B9F4A1268802149020A431A603B
:100E3C000BE09C4B9B4A12689B490A401A60994BE9
:100E4C00984A126899490A401A607B685B68002BC3
:100E5C0014D0FFF7A7FB03003B6108E0FFF7A2FBF0
:100E6C0002003B69D31A642B01D90323D9E28D4BC1
:100E7C001A6880239B021340F0D015E0FFF792FB19
:100E8C0003003B6108E0FFF78DFB02003B69D31ABE
:100E9C00642B01D90323C4E2824B1A6880239B0282
:100EAC001340F0D100E0C0467B681B68022213405F
:100EBC0000D16CE07B4B5B680C2213400ED0794B5D
:100ECC005B680C221340082B1FD1764B5A68C02349
:100EDC005B021A4080231B029A4216D1714B1B688D
:100EEC000222134005D07B68DB68012B01D0012363
:100EFC0097E26C4A6B4B1B68F8218B4319007B689B
:100F0C001B69DB000B43136041E07B68DB68002B43
:100F1C0024D0644B634A126801210A431A60FFF71C
:100F2C0041FB03003B6108E0FFF73CFB02003B691F
:100F3C00D31A022B01D9032373E25A4B1B680222EA
:100F4C001340F1D0574A574B1B68F8218B431900BB
:100F5C007B681B69DB000B43136018E0514B514A53
:100F6C00126801218A431A60FFF71CFB03003B61E6
:100F7C0008E0FFF717FB02003B69D31A022B01D9DB
:100F8C0003234EE2474B1B6802221340F1D17B68CE
:100F9C001B680822134036D07B68DB69002B19D004
:100FAC00404B404A526A01210A435A62FFF7FAFA4F
:100FBC0003003B6108E0FFF7F5FA02003B69D31A26
:100FCC00022B01D903232CE2364B5B6A022213401D
:100FDC00F1D018E0334B334A526A01218A435A62EA
:100FEC00FFF7E0FA03003B6108E0FFF7DBFA0200D1
:100FFC003B69D31A022B01D9032312E2294B5B6AFA
:10100C0002221340F1D17B681B680422134000D1EB
:10101C00B6E01723FB1800221A70224BDA698023E2
:10102C005B05134011D11F4B1E4AD2698021490523
:10103C000A43DA611B4BDA6980235B051340FB60C2
:10104C00FB681723FB1801221A70194B1A688023AE
:10105C005B0013401AD1164B154A126880214900C7
:10106C000A431A60FFF79EFA03003B6108E0FFF7A2
:10107C0099FA02003B69D31A642B01D90323D0E1FE
:10108C000B4B1A6880235B001340F0D07B689B6885
:10109C00012B0FD1034B034A126A01210A431A6236
:1010AC0036E0C04600100240FFFFFEFFFFFFFBFFD3
:1010BC00007000407B689B68002B0CD1C94BC94A5F
:1010CC00126A01218A431A62C64BC64A126A04216B
:1010DC008A431A621CE07B689B68052B0CD1C14BC0
:1010EC00C04A126A04210A431A62BE4BBD4A126AF4
:1010FC0001210A431A620BE0BA4BBA4A126A012167
:10110C008A431A62B74BB74A126A04218A431A629D
:10111C007B689B68002B14D0FFF744FA03003B61FB
:10112C0009E0FFF73FFA02003B69D31AAE4A93423B
:10113C0001D9032375E1AB4B1B6A02221340F0D09B
:10114C0013E0FFF72FFA03003B6109E0FFF72AFADF
:10115C0002003B69D31AA44A934201D9032360E1EC
:10116C00A04B1B6A02221340F0D11723FB181B78EB
:10117C00012B05D19B4B9B4AD2699C490A40DA61F1
:10118C007B681B681022134063D07B685B69012B62
:10119C002AD1944B934A526B04210A435A63914BC4
:1011AC00904A526B01210A435A63FFF7FBF9030083
:1011BC003B6108E0FFF7F6F902003B69D31A022BFA
:1011CC0001D903232DE1874B5B6B02221340F1D035
:1011DC00844A844B5B6BF8218B4319007B689B69B9
:1011EC00DB000B43536334E07B685B69053311D13F
:1011FC007C4B7C4A526B04218A435A63794A794B63
:10120C005B6BF8218B4319007B689B69DB000B43FC
:10121C0053631EE0734B734A526B04210A435A63A7
:10122C00704B704A526B01218A435A63FFF7BAF92B
:10123C0003003B6108E0FFF7B5F902003B69D31AE4
:10124C00022B01D90323ECE0664B5B6B02221340AB
:10125C00F1D17B681B68202213405CD0614B5B682A
:10126C000C2213400C2B0ED05E4B5B680C221340EF
:10127C00082B14D15B4B5A68C0235B021A40C02365
:10128C005B029A420BD1574B5A6B80235B02134083
:10129C0040D07B681B6A012B3CD00123C1E07B68EA
:1012AC001B6A002B1BD04F4B4E4A526B80214902BC
:1012BC000A435A63FFF776F903003B6108E0FFF736
:1012CC0071F902003B69D31A022B01D90323A8E060
:1012DC00444B5A6B80235B021340F0D01BE0414B14
:1012EC00404A526B42490A405A63FFF75BF90300CC
:1012FC003B6108E0FFF756F902003B69D31A022B59
:10130C0001D903238DE0374B5A6B80235B021340CA
:10131C00F0D100E0C0467B685B6A002B00D17FE017
:10132C00304B5B680C221340082B00D176E07B68B5
:10133C005B6A022B4BD12B4B2A4A12682D490A406F
:10134C001A60FFF72FF903003B6108E0FFF72AF959
:10135C0002003B69D31A022B01D9032361E0214B14
:10136C001A6880239B041340F0D11E4A1D4BDB6A84
:10137C000F218B4319007B681B6B0B43D362194AFB
:10138C00184B5B681C4919407B68D86A7B689B6A60
:10139C0003430B435360134B124A126880214904D8
:1013AC000A431A60FFF7FEF803003B6108E0FFF701
:1013BC00F9F802003B69D31A022B01D9032330E060
:1013CC00084B1A6880239B041340F0D028E0054B8F
:1013DC00044A126807490A401A60FFF7E3F8030051
:1013EC003B6114E00010024088130000FFFFFFEF88
:1013FC00FFFFFEFFFFFFFFFEFF7FC2FFFFF7D2F8EC
:10140C0002003B69D31A022B01D9032309E0074BD5
:10141C001A6880239B041340F0D101E0012300E003
:10142C0000231800BD4606B080BDC0460010024027
:10143C0080B584B000AF786039600023FB607A4BD4
:10144C001B6801221A403B689A4211D2764B764AAD
:10145C00126801218A4311003A680A431A60724BE0
:10146C001B6801221A403B689A4201D00123D7E045
:10147C007B681B680222134009D06C4A6B4B5B687B
:10148C00F0218B4319007B689B680B4353607B688E
:10149C001B680122134000D189E07B685B68012B3B
:1014AC0007D1624B1A6880239B02134020D1012381
:1014BC00B6E07B685B68022B07D15C4B1A68802313
:1014CC009B04134014D10123AAE07B685B68032BB7
:1014DC0007D1564B5A6B80235B02134008D1012372
:1014EC009EE0524B1B680222134001D1012397E06E
:1014FC004E4A4E4B5B6803218B4319007B685B683B
:10150C000B435360FFF74EF80300FB607B685B688E
:10151C00012B11D109E0FFF745F80200FB68D31A43
:10152C00434A934201D903237AE0404B5B680C2277
:10153C001340042BEFD13AE07B685B68022B11D18E
:10154C0009E0FFF72FF80200FB68D31A384A9342E0
:10155C0001D9032364E0354B5B680C221340082B44
:10156C00EFD124E07B685B68032B1BD109E0FFF70C
:10157C0019F80200FB68D31A2D4A934201D90323B0
:10158C004EE02A4B5B680C2213400C2BEFD10EE083
:10159C00FFF708F80200FB68D31A254A934201D9D9
:1015AC0003233DE0214B5B680C221340F0D11E4B12
:1015BC001B6801221A403B689A4211D91A4B1A4AED
:1015CC00126801218A4311003A680A431A60164BCB
:1015DC001B6801221A403B689A4201D001231FE08C
:1015EC007B681B680422134008D0104A0F4B5B68C1
:1015FC00104919407B68DB680B43536000F020F8FE
:10160C0001000A4B5B681B090F2213400A4AD35C8A
:10161C000A00DA40094B1A600020FEF79BFF0023FA
:10162C001800BD4604B080BD0020024000100240EE
:10163C0088130000FFF8FFFF042E0008180000209C
:10164C0090B58FB000AF1423FB18374A13CA13C3DD
:10165C0012681A603B1D354A13CA13C312681A600C
:10166C000023FB620023BB6200237B6300237B62AD
:10167C0000233B632E4B5B68FB62FB6A0C2213401E
:10168C00082B06D00C2B43D0042B44D1294B3B63A5
:10169C0044E0FB6A9B0C0F2213401422BA18D35C53
:1016AC007B62234BDB6A0F2213403A1DD35CBB6277
:1016BC00FA6AC0235B021A4080235B029A4209D16A
:1016CC00B96A1C48FEF718FD03001A007B6A5343E5
:1016DC007B631AE0FA6AC0235B021A40C0235B02E8
:1016EC009A4209D1B96A1448FEF706FD03001A00A4
:1016FC007B6A53437B6308E0B96A0E48FEF7FCFC37
:10170C0003001A007B6A53437B637B6B3B6305E0EE
:10171C00094B3B6302E0074B3B63C0463B6B180035
:10172C00BD460FB090BDC046782D0008882D00082E
:10173C000010024000127A00006CDC0280B500AF91
:10174C00024B1B681800BD4680BDC0461800002027
:10175C0080B584B000AF78607B68002B01D1012389
:10176C0088E07B6800229A627B685D229B5CDBB21E
:10177C00002B07D17B685C22002199547B681800F0
:10178C0001F09EF97B685D22022199547B681B68ED
:10179C007A681268126840218A431A607B68DA689A
:1017AC00E023DB009A4202D90023FB6002E0802395
:1017BC005B01FB607B68DA68F0231B019A4208D05E
:1017CC007B68DA68E023DB009A4202D07B68002257
:1017DC009A627B681B6B002B0CD17B68DA68E02368
:1017EC00DB009A4203D97B6802221A6302E07B6811
:1017FC0001221A637B681B687A6851687A68926860
:10180C0011437A68126911437A68526911437A68F4
:10181C00906980229200024011437A68D269114388
:10182C007A68126A11437A68926A0A431A607B6872
:10183C001B687A689269120C042111407A68526A0A
:10184C0011437A68526B11437A68D2681143FA6873
:10185C000A435A607B681B687A681268D269074928
:10186C000A40DA617B6800221A667B685D220121DE
:10187C00995400231800BD4604B080BDFFF7FFFF4C
:10188C0080B588B000AFF860B9603B60BB1D1A80B2
:10189C000023BB611F23FB1800221A70FB685C221B
:1018AC009B5C012B01D102234FE1FB685C220121DF
:1018BC009954FEF777FE0300BB61FB685D229B5CCD
:1018CC00DBB2012B04D01F23FB1802221A7031E16A
:1018DC00BB68002B03D0BB1D1B88002B04D11F231E
:1018EC00FB1801221A7025E1FB685D220321995433
:1018FC00FB6800221A66FB68BA689A63FB68BA1D1B
:10190C0012889A87FB68BA1D1288DA87FB68002256
:10191C001A64FB68442200219952FB68462200217C
:10192C009952FB6800221A65FB680022DA64FB6896
:10193C009A6880231B029A4208D1FB681B68FA68DC
:10194C00126812688021C9010A431A60FB681B687F
:10195C001B6840221340402B07D0FB681B68FA68B9
:10196C001268126840210A431A60FB68DA68E023A7
:10197C00DB009A4248D9FB685B68002B04D0FB68FB
:10198C00DB8F9BB2012B39D1FB681B68BA681288BC
:10199C00DA60BB680233BB60FB68DB8F9BB2013B38
:1019AC009AB2FB68DA8729E0FB681B689B68022205
:1019BC001340022B0FD1FB681B68BA681288DA60DF
:1019CC00BB680233BB60FB68DB8F9BB2013B9AB2F6
:1019DC00FB68DA8712E03B68002B0AD03B680133C6
:1019EC000CD0FEF7DFFD0200BB69D21A3B689A42AD
:1019FC0004D31F23FB1803221A709BE0FB68DB8FB8
:101A0C009BB2002BD0D173E0FB685B68002B04D039
:101A1C00FB68DB8F9BB2012B65D1FB68DB8F9BB224
:101A2C00012B0FD9FB681B68BA681288DA60BB6897
:101A3C000233BB60FB68DB8F9BB2023B9AB2FB6844
:101A4C00DA8750E0FB681B680C331A00BB68591C22
:101A5C00B9601B781370FB68DB8F9BB2013B9AB2A9
:101A6C00FB68DA873FE0FB681B689B680222134027
:101A7C00022B25D1FB68DB8F9BB2012B0FD9FB68A6
:101A8C001B68BA681288DA60BB680233BB60FB68FB
:101A9C00DB8F9BB2023B9AB2FB68DA8723E0FB68D0
:101AAC001B680C331A00BB68591CB9601B78137087
:101ABC00FB68DB8F9BB2013B9AB2FB68DA8712E0C2
:101ACC003B68002B0AD03B6801330CD0FEF76AFD53
:101ADC000200BB69D21A3B689A4204D31F23FB183D
:101AEC0003221A7026E0FB68DB8F9BB2002BBAD165
:101AFC00BA693968FB68180000F0CEFC031E02D0EE
:101B0C00FB6820221A66FB689B68002B0AD1002315
:101B1C007B61FB681B68DB687B61FB681B689B68EF
:101B2C007B617B69FB681B6E002B03D01F23FB18AA
:101B3C0001221A70FB685D2201219954FB685C221A
:101B4C00002199541F23FB181B781800BD4608B0C0
:101B5C0080BD000090B589B002AFF860B9603B6001
:101B6C00BB1D1A8000233B611723FB1800221A703F
:101B7C00FB685A6882235B009A4213D1FB689B680E
:101B8C00002B0FD1FB685D2204219954BB1D1C88CE
:101B9C00BA68B968F8683B680093230000F016F93E
:101BAC0003000AE1FB685C229B5C012B01D1022340
:101BBC0003E1FB685C2201219954FEF7F3FC03005E
:101BCC003B61FB685D229B5CDBB2012B04D01723CD
:101BDC00FB1802221A70E5E0BB68002B03D0BB1D7A
:101BEC001B88002B04D11723FB1801221A70D9E093
:101BFC00FB685D2204219954FB6800221A66FB687D
:101C0C00BA681A64FB68BA1D442112885A52FB68E0
:101C1C00BA1D462112885A52FB6800229A63FB684F
:101C2C0000229A87FB680022DA87FB680022DA64BC
:101C3C00FB6800221A65FB68DA68E023DB009A4235
:101C4C0008D9FB681B68FA68126852685D490A403B
:101C5C005A6008E0FB681B68FA68126852688021B9
:101C6C0049010A435A60FB689A6880231B029A4216
:101C7C0007D1FB681B68FA681268126852490A405F
:101C8C001A60FB681B681B6840221340402B07D06E
:101C9C00FB681B68FA681268126840210A431A60D4
:101CAC00FB68DA68E023DB009A4262D82DE0FB681F
:101CBC001B689B6801221340012B13D1FB681B6826
:101CCC000C331B78DAB2BB681A70BB680133BB608B
:101CDC00FB6846229B5A9BB2013B99B2FB68462299
:101CEC00995212E03B68002B0AD03B6801330CD0B0
:101CFC00FEF758FC02003B69D21A3B689A4204D3A7
:101D0C001723FB1803221A704CE0FB6846229B5ADF
:101D1C009BB2002BCBD132E0FB681B689B68012285
:101D2C001340012B12D1FB681B68DB689AB2BB68AD
:101D3C001A80BB680233BB60FB6846229B5A9BB27D
:101D4C00013B99B2FB684622995212E03B68002B8A
:101D5C000AD03B6801330CD0FEF724FC02003B692F
:101D6C00D21A3B689A4204D31723FB1803221A7029
:101D7C0018E0FB6846229B5A9BB2002BCCD13A69E7
:101D8C003968FB68180000F029FB031E02D0FB68C1
:101D9C0020221A66FB681B6E002B03D01723FB183E
:101DAC0001221A70FB685D2201219954FB685C22A8
:101DBC00002199541723FB181B781800BD4607B057
:101DCC0090BDC046FFEFFFFFFFBFFFFF80B58AB09D
:101DDC0000AFF860B9607A601A00BB1C1A8000234F
:101DEC00FB610023BB6100237B6101237B62232306
:101DFC00FB1800221A70FB685C229B5C012B01D142
:101E0C000223F1E1FB685C2201219954FEF7CAFB25
:101E1C0003007B61FB685D229B5CDBB2FB61FB68B2
:101E2C005B68BB61FB69012B10D0BA6982235B0034
:101E3C009A4206D1FB689B68002B02D1FB69042BEC
:101E4C0004D02323FB1802221A70C2E1BB68002BBA
:101E5C0006D07B68002B03D0BB1C1B88002B04D145
:101E6C002323FB1801221A70B3E1FB685D229B5CF3
:101E7C00DBB2042B03D0FB685D2205219954FB686F
:101E8C0000221A66FB687A681A64FB68BA1C462141
:101E9C0012885A52FB68BA1C442112885A52FB68A9
:101EAC00BA689A63FB68BA1C1288DA87FB68BA1C9A
:101EBC0012889A87FB680022DA64FB6800221A6594
:101ECC00FB68DA68E023DB009A4205D8FB684622FF
:101EDC009B5A9BB2012B08D9FB681B68FA681268E5
:101EEC005268C3490A405A6008E0FB681B68FA68EC
:101EFC0012685268802149010A435A60FB681B68CA
:101F0C001B6840221340402B07D0FB681B68FA6803
:101F1C001268126840210A431A60FB68DA68E023F1
:101F2C00DB009A4200D875E0FB685B68002B04D09C
:101F3C00FB68DB8F9BB2012B60D1FB681B68BA6816
:101F4C001288DA60BB680233BB60FB68DB8F9BB224
:101F5C00013B9AB2FB68DA8750E07B6A002B1CD0FD
:101F6C00FB68DB8F9BB2002B17D0FB681B689B6850
:101F7C0002221340022B10D1FB681B68BA6812882E
:101F8C00DA60BB680233BB60FB68DB8F9BB2013B42
:101F9C009AB2FB68DA8700237B62FB6846229B5A65
:101FAC009BB2002B1AD0FB681B689B680122134064
:101FBC00012B13D1FB681B68DB689AB27B681A8013
:101FCC007B6802337B60FB6846229B5A9BB2013BC9
:101FDC0099B2FB684622995201237B623B6B013319
:101FEC000CD0FEF7DFFA02007B69D21A3B6B9A42E7
:101FFC0004D32323FB1803221A70EAE0FB68DB8F5F
:10200C009BB2002BA9D1FB6846229B5A9BB2002B9A
:10201C00A3D1CBE0FB685B68002B05D0FB68DB8FA2
:10202C009BB2012B00D0B4E0FB68DB8F9BB2012B81
:10203C000FD9FB681B68BA681288DA60BB68023378
:10204C00BB60FB68DB8F9BB2023B9AB2FB68DA8702
:10205C009FE0FB681B680C331A00BB68591CB96005
:10206C001B781370FB68DB8F9BB2013B9AB2FB6849
:10207C00DA878EE07B6A002B32D0FB68DB8F9BB259
:10208C00002B2DD0FB681B689B6802221340022B8F
:10209C0026D1FB68DB8F9BB2012B0FD9FB681B6829
:1020AC00BA681288DA60BB680233BB60FB68DB8FEE
:1020BC009BB2023B9AB2FB68DA870FE0FB681B68A5
:1020CC000C331A00BB68591CB9601B781370FB6881
:1020DC00DB8F9BB2013B9AB2FB68DA8700237B62F1
:1020EC00FB6846229B5A9BB2002B42D0FB681B68B4
:1020FC009B6801221340012B3BD1FB6846229B5A63
:10210C009BB2012B21D9FB681B68DB689AB27B68F8
:10211C001A807B6802337B60FB6846229B5A9BB219
:10212C00023B99B2FB6846229952FB6846229B5AA5
:10213C009BB2012B1BD8FB681B68FA6812685268AB
:10214C00802149010A435A6011E07B685A1C7A606D
:10215C00FA6812680C321278D2B21A70FB684622F6
:10216C009B5A9BB2013B99B2FB68462299520123C0
:10217C007B623B6B01330CD0FEF714FA02007B69D7
:10218C00D21A3B6B9A4204D32323FB1803221A70F6
:10219C001FE0FB68DB8F9BB2002B00D06AE7FB686B
:1021AC0046229B5A9BB2002B00D063E77A69396BAD
:1021BC00FB68180000F070F9031E02D0FB682022A7
:1021CC001A66FB681B6E002B03D02323FB1801221D
:1021DC001A70FB685D2201219954FB685C22002176
:1021EC0099542323FB181B781800BD460AB080BDF8
:1021FC00FFEFFFFF80B582B000AF78607B681B6E8D
:10220C001800BD4602B080BD80B584B000AFF86048
:10221C00B9607A603B6050E03B6801334DD03B685D
:10222C00002B07D0FEF7BEF90200BB69D21A3B683F
:10223C009A4242D3FB681B68FA6812685268E02124
:10224C008A435A60FB685A6882235B009A4213D116
:10225C00FB689A6880231B029A4205D0FB689A6837
:10226C008023DB009A4207D1FB681B68FA6812686E
:10227C00126840218A431A60FB689A6A80239B018A
:10228C009A4210D1FB681B68FA68126812681449EC
:10229C000A401A60FB681B68FA6812681268802191
:1022AC0089010A431A60FB685D2201219954FB687D
:1022BC005C220021995403230EE0FB681B689B6889
:1022CC00BA681A40BB689A4201D1012300E000238E
:1022DC007A689342A0D100231800BD4604B080BD9B
:1022EC00FFDFFFFF80B586B000AFF860B9607A60A1
:1022FC003B6063E0BA68C023DB009A420DD17B6877
:10230C00002B0AD1FB681B680C331B78DAB217233D
:10231C00FB181A701723FB181B783B6801334DD040
:10232C003B68002B07D0FEF73DF902003B6AD21A3E
:10233C003B689A4242D3FB681B68FA681268526881
:10234C00E0218A435A60FB685A6882235B009A42F8
:10235C0013D1FB689A6880231B029A4205D0FB6854
:10236C009A688023DB009A4207D1FB681B68FA68E5
:10237C001268126840218A431A60FB689A6A8023AB
:10238C009B019A4210D1FB681B68FA6812681268AC
:10239C0011490A401A60FB681B68FA6812681268D7
:1023AC00802189010A431A60FB685D22012199543E
:1023BC00FB685C2200219954032308E0FB681B682E
:1023CC009B68BA681A407B689A4293D10023180024
:1023DC00BD4606B080BDC046FFDFFFFF80B586B0AE
:1023EC0002AFF860B9607A60FB685A6882235B00C0
:1023FC009A4213D1FB689A6880231B029A4205D03B
:10240C00FB689A688023DB009A4207D1FB681B6843
:10241C00FA681268126840218A431A60BA68F86830
:10242C007B680093130000228021FFF7EDFE031E52
:10243C0007D0FB681B6E20221A43FB681A66032325
:10244C0026E0FB685A6882235B009A421FD1FB6826
:10245C009A6880231B029A4205D0FB689A688023F5
:10246C00DB009A4213D1BA68C023D900F8687B68A4
:10247C00009313000022FFF735FF031E07D0FB6803
:10248C001B6E20221A43FB681A66032300E000230C
:10249C001800BD4604B080BD80B586B002AFF860B0
:1024AC00B9607A60BA68C0235901F8687B680093F8
:1024BC0013000022FFF716FF031E07D0FB681B6EEC
:1024CC0020221A43FB681A66032327E0BA68F868CF
:1024DC007B680093130000228021FFF795FE031EFA
:1024EC0007D0FB681B6E20221A43FB681A66032375
:1024FC0014E0BA68C023D900F8687B680093130015
:10250C000022FFF7EFFE031E07D0FB681B6E202294
:10251C001A43FB681A66032300E000231800BD462B
:10252C0004B080BD80B584B000AF0200FB1D1A70F2
:10253C00BB1D0A1C1A70FB1D1B781B02FB60FB6881
:10254C00084A934204DDFB68074A94466344FB60E7
:10255C00BB1D1B78FA68D318FB60FB681800BD46DE
:10256C0004B080BDFF7F00000100FFFF80B584B088
:10257C0000AFF860B9607A609023DB05002210216F
:10258C001800FEF7C7FB7B689AB20C4B1B68B96846
:10259C00F868FFF775F9C046FB685D229B5CDBB2FF
:1025AC00022BF9D09023DB05012210211800FEF735
:1025BC00B1FBC046BD4604B080BDC046140000202F
:1025CC0080B584B000AF78600A00FB1C1A70FB1C4D
:1025DC001B78803BDAB2FB1C1A709023DB050022BF
:1025EC0010211800FEF796FB114B1B68F91C78683C
:1025FC000122FFF745F90E4B1B680F22B9187868BA
:10260C000122FFF7A7FAC0467B685D229B5CDBB218
:10261C00022BF9D09023DB05012210211800FEF7C4
:10262C0079FB0F23FB181B781800BD4604B080BD46
:10263C001400002080B582B000AF0200FB1D1A70A0
:10264C00BB1D0A1C1A70BB1D1A78FB1D1B781100D0
:10265C001800FFF767FF03001800FDF7F9FE021CD6
:10266C00054B1B68191C101CFDF7D2FD031C181C14
:10267C00BD4602B080BDC0461000002090B585B0AC
:10268C0000AF3B1D180006231A00002100F05AFB76
:10269C00FDF74CFF00F0ACF800F06EF900F04EF9CD
:1026AC0000F008F99023DB05012210211800FEF739
:1026BC0031FB9023DB05002210211800FEF72AFBCA
:1026CC004449454832230222FFF7DAF8C046424B10
:1026DC005D229B5CDBB2022BF9D09023DB0501223F
:1026EC0010211800FEF716FB0123FB601AE0FB68B3
:1026FC005A00384BD118384B02221800FFF736FF1E
:10270C00FB685C1EFB685B00324AD25C324B1100EA
:10271C001800FFF755FF03001A00304B1A55FB68E1
:10272C000133FB60FB68062BE1DD80235B012C4A47
:10273C0019001000FEF70BFB3B1DA8221A7090230A
:10274C00DB05002210211800FEF7E4FA391D22489F
:10275C0005230122FFF794F8391D1F480523062293
:10276C00FFF7F8F9C0461C4B5D229B5CDBB2022BD9
:10277C00F9D09023DB05012210211800FEF7CAFACC
:10278C003B1D5A783B1D1B7819001000FFF752FFB8
:10279C00021C144B1A603B1DDA783B1D9B78190008
:1027AC001000FFF747FF021C0F4B1A603B1D5A79B4
:1027BC003B1D1B7919001000FFF73CFF021C0B4B53
:1027CC001A6080235B01064A19001000FEF7BFFA5D
:1027DC00ABE7C04600000020540000203800002069
:1027EC000004004840000020440000204800002065
:1027FC0080B592B000AF1423FB1802221A60142388
:10280C00FB180122DA601423FB1810221A6114231E
:10281C00FB1802225A621423FB18802212029A62BD
:10282C001423FB18C0221203DA621423FB180022B3
:10283C001A631423FB181800FEF79CFA031E04D02D
:10284C001B4BC921180000F0FDF83B1D07221A6034
:10285C003B1D02225A603B1D00229A603B1D002248
:10286C00DA603B1D01211800FEF7E2FD031E04D0C7
:10287C000F4BD621180000F0E5F8FEF75FFF0200C1
:10288C00FA2399001000FDF737FC03001800FDF740
:10289C0061FF0420FDF76CFF01235B420022002145
:1028AC001800FDF731FFC046BD4612B080BDC046D2
:1028BC00982D000880B500AF1D4B1E4A1A601C4BAA
:1028CC00822252005A601A4B00229A60184BE02266
:1028DC00D200DA60164B02221A61154B01225A61A2
:1028EC00134B802292009A61114B0822DA61104B33
:1028FC0000221A620E4B00225A620D4B00229A6281
:10290C000B4B0722DA620A4B00221A63084B002297
:10291C005A63074B1800FEF71BFF031E04D0064B2F
:10292C00FA21180000F08EF8C046BD4680BDC046A6
:10293C005400002000300140982D000880B582B072
:10294C0000AF0C4B0B4A526901210A435A61094BE7
:10295C005B69012213407B607B68002200210A2006
:10296C00FDF7D2FE0A20FDF7E5FEC046BD4602B0DB
:10297C0080BDC0460010024080B588B000AF2F4B20
:10298C002E4A5269802189020A435A612B4B5A699B
:10299C0080239B021340BB60BB68284B274A5269BB
:1029AC008021C9020A435A61244B5A698023DB02F5
:1029BC0013407B607B689023DB05002210211800FC
:1029CC00FEF7A8F980235B011D4800221900FEF7D1
:1029DC00A1F90C23FB1810221A600C23FB180122FE
:1029EC005A600C23FB1800229A600C23FB1800225F
:1029FC00DA600C23FA189023DB0511001800FEF79F
:102A0C000DF80C23FB18802252011A600C23FB18C2
:102A1C0001225A600C23FB1800229A600C23FB182D
:102A2C000022DA600C23FB18054A19001000FDF790
:102A3C00F5FFC046BD4608B080BDC0460010024040
:102A4C000004004880B582B000AF78603960FEE7C2
:102A5C0080B582B000AF194B184A926901210A4324
:102A6C009A61164B9B69012213407B607B68134B68
:102A7C00124AD269802149050A43DA610F4BDA699F
:102A8C0080235B0513403B603B6805235B420022BF
:102A9C0000211800FDF738FE02235B4200220021C2
:102AAC001800FDF731FE01235B42002200211800C3
:102ABC00FDF72AFEC046BD4602B080BD00100240A4
:102ACC0080B588B000AF78607B681B68344A93424D
:102ADC0062D1344B334A9269802149010A439A618D
:102AEC00304B9A6980235B011340BB60BB680C239D
:102AFC00FB18E0221A600C23FB1802225A600C23EC
:102B0C00FB1800229A600C23FB180322DA600C23BA
:102B1C00FB1800221A610C23FA189023DB05110014
:102B2C001800FDF77BFF204B204A1A601E4B002239
:102B3C005A601D4B00229A601B4B8022DA601A4BA4
:102B4C0000221A61184B00225A61174B00229A611D
:102B5C00154B0022DA61144B1800FDF72FFE031EF3
:102B6C0004D0134B6D211800FFF76CFF1149114A6B
:102B7C00A823D358F0229343A8228B500D490D4A19
:102B8C00A823D35830221343A8228B507B68064AC3
:102B9C009A65054B7A685A62C046BD4608B080BD3E
:102BAC000030014000100240B80000201C00024020
:102BBC00A82D00080000024080B500AFC046BD46FD
:102BCC0080BD000080B500AF034B1800FFF712FB6F
:102BDC000200024B1A60FEE7540000204C0000205B
:102BEC0080B500AFC046BD4680BD80B500AFC046C5
:102BFC00BD4680BD80B500AFFDF7C8FCFDF7D2FD2A
:102C0C00C046BD4680BD000080B500AF034B180028
:102C1C00FDF728FEC046BD4680BDC046B80000206A
:102C2C0080B500AF1A4B1A4A126801210A431A6088
:102C3C00174B174A526817490A405A60144B144AEA
:102C4C00126815490A401A60114B114A126813494F
:102C5C000A401A600E4B0E4A526811490A405A60DB
:102C6C000B4B0B4AD26A0F218A43DA62084B084A93
:102C7C00126B0C490A401A63054B054A526B012131
:102C8C008A435A63024B00229A60C046BD4680BDFF
:102C9C00001002400CB8FF08FFFFF6FEFFFFFBFF21
:102CAC00FFFFC0FFACFEF0FF0D4885460D480E49F6
:102CBC000E4A002302E0D458C4500433C4188C428A
:102CCC00F9D30B4A0B4C002301E013600432A242EF
:102CDC00FBD3FFF7A5FF00F011F8FFF7CFFCFEE7E1
:102CEC0000800020000000201C0000201C2E00088A
:102CFC001C000020FC000020FEE7000070B5002640
:102D0C000C4D0D4C641BA410A64209D1002600F0FA
:102D1C0021F80A4D0A4C641BA410A64205D170BDC3
:102D2C00B300EB5898470136EEE7B300EB589847E1
:102D3C000136F2E7142E0008142E0008142E000899
:102D4C00182E000803008218934200D170471970A6
:102D5C000133F9E7F8B5C046F8BC08BC9E4670478D
:0C2D6C00F8B5C046F8BC08BC9E46704795
:102D780002030405060708090A0B0C0D0E0F1010B4
:102D88000102030405060708090A0B0C0D0E0F10B3
:102D98002E2E5C5372635C6D61696E2E63000000B9
:102DA8002E2E5C5372635C73746D333266307878A0
:102DB8005F68616C5F6D73702E63000048030008E4
:102DC8009802000898020008960200083A030008D2
:102DD8003A03000830030008960200083A03000886
:102DE800300300083A030008960200084003000870
:102DF8004003000840030008D0030008000000005A
:0C2E080000000000010203040607080996
:042E1400E5000008CD
:042E1800BD000008F1
:102E1C0021402104206022002300244025C0000012
:0C2E2C0023DB793D3200000000127A0028
:0400000508002CB50E
:00000001FF
