:020000040800F2
:10000000008000207D3B00088D3A0008993A0008E6
:1000100000000000000000000000000000000000E0
:10002000000000000000000000000000B53A0008D9
:100030000000000000000000BF3A0008C93A0008B4
:10004000CD3B0008CD3B0008CD3B0008CD3B000870
:10005000CD3B0008CD3B0008CD3B0008CD3B000860
:10006000CD3B0008CD3B0008DD3A0008CD3B000841
:10007000CD3B0008CD3B0008CD3B0008CD3B000840
:10008000CD3B0008CD3B0008CD3B0008CD3B000830
:10009000CD3B0008CD3B0008CD3B0008CD3B000820
:1000A000CD3B0008CD3B0008CD3B0008CD3B000810
:0C00B000CD3B0008CD3B0008CD3B000814
:1000BC0010B5064C2378002B07D1054B002B02D032
:1000CC00044800E000BF0123237010BD1C00002079
:1000DC0000000000283C0008044B10B5002B03D096
:1000EC000349044800E000BF10BDC04600000000FA
:1000FC0020000020283C0008002243088B4274D3C7
:10010C0003098B425FD3030A8B4244D3030B8B420C
:10011C0028D3030C8B420DD3FF22090212BA030C15
:10012C008B4202D31212090265D0030B8B4219D3F6
:10013C0000E0090AC30B8B4201D3CB03C01A524116
:10014C00830B8B4201D38B03C01A5241430B8B425E
:10015C0001D34B03C01A5241030B8B4201D30B0347
:10016C00C01A5241C30A8B4201D3CB02C01A52416E
:10017C00830A8B4201D38B02C01A5241430A8B4231
:10018C0001D34B02C01A5241030A8B4201D30B021A
:10019C00C01A5241CDD2C3098B4201D3CB01C01A34
:1001AC00524183098B4201D38B01C01A524143093E
:1001BC008B4201D34B01C01A524103098B4201D32C
:1001CC000B01C01A5241C3088B4201D3CB00C01A99
:1001DC00524183088B4201D38B00C01A5241430811
:1001EC008B4201D34B00C01A5241411A00D2014636
:1001FC00524110467047FFE701B5002000F006F8A9
:10020C0002BDC0460029F7D076E770477047C0465C
:10021C00F8B557464E464546DE46E0B54702460021
:10022C0088467F0A360EC40F002E47D0FF2E24D0EE
:10023C00FB008027FF041F43002399469A467F3E0C
:10024C0043465D025800DB0F6D0A000E984643D002
:10025C00FF283BD0EB0080250022ED041D437F38A6
:10026C003618731C41469B464B46614013430F2B7B
:10027C0064D875489B00C3589F46002F42D1082371
:10028C009946063BFF269A46DAE74146022A28D0D1
:10029C00032A00D1CEE0012A00D0ACE011400020AE
:1002AC000022CCB24002D205400AE407104320439E
:1002BC003CBC90469946A246AB46F8BD002F15D1E2
:1002CC0004239946033B00269A46B9E7FF200222F5
:1002DC00002DC5D00322C3E7002D19D10020012227
:1002EC00BEE70124FF220C400020DBE7380000F0C1
:1002FC00FFF87626431F9F4000237642361A994614
:10030C009A469DE70C239946093BFF269A4697E7A8
:10031C00280000F0EDF8431F9D4076235B42181A2D
:10032C0000229DE780200024C003FF22BAE73D0095
:10033C005246ABE73D0021005246A7E73B0C9C46DA
:10034C002A04120C2B0C1400604665463F043F0C2B
:10035C007C4342435D437B43270C9B18FF18BA42F6
:10036C0003D980235B029C46654424043A04240C84
:10037C00121993015C1EA3413F0C920E7D191A4376
:10038C00AD0115432B0104D501235E466A081D40BF
:10039C00154332007F32002A25DD6B0704D00F2372
:1003AC002B40042B00D004352B0103D53200274BF6
:1003BC0080321D40FE2A94DC0124A801400AD2B2EE
:1003CC000C406FE78020C003074207D0054205D1DF
:1003DC0028434002400A4446FF2263E73843400268
:1003EC00400AFF225EE70124A31A1B2B05DD0C40FB
:1003FC000022002056E75E46CBE72A002020DA4098
:10040C00C31A9D402B005D1EAB4113435A0704D009
:10041C000F221A40042A00D004335A0104D50124B7
:10042C0001220C4000203DE701249B01580A0C409E
:10043C00002237E780200124C00328434002400AF1
:10044C000C40FF222EE7C0468C3C0008FFFFFFF754
:10045C0070B5002830D0C317C4185C40C50F2000FD
:10046C0000F046F89E231B1A962B0DDC9622D21A0E
:10047C0094402A006402640ADBB26402DB05600A61
:10048C00D2071843104370BD992B19DC9922D21A4C
:10049C00002A29DD94402200144C1440510704D04A
:1004AC000F210A40042A00D00434620113D4A401A1
:1004BC00640ADBB22A00E0E7002200230024DCE718
:1004CC0005222100121AD140B922D21A9440621E80
:1004DC0094410C43DAE7054B2A001C409F23A401EE
:1004EC001B1A640ADBB2C8E72200D5E7FFFFFFFB4B
:1004FC001C2101231B04984201D3000C10391B0A48
:10050C00984201D3000A08391B09984201D300090B
:10051C00043902A2105C40187047C0460403020262
:10052C0001010101000000000000000080B500AFD7
:10053C00074B074A126810210A431A60002000F08A
:10054C0009F803F0ADF900231800BD4680BDC04684
:10055C000020024080B582B000AF786001F002FF4D
:10056C000200FA2399001000FFF7C6FD03001800E3
:10057C0000F004FF796801235B420022180000F0B0
:10058C00D7FE00231800BD4602B080BD80B500AF79
:10059C00034B1B685A1C024B1A60C046BD4680BDFB
:1005AC005000002080B500AF024B1B681800BD4600
:1005BC0080BDC0465000002080B584B000AF78608C
:1005CC00FFF7F0FF0300BB607B68FB60FB68013347
:1005DC0002D0FB680133FB60C046FFF7E3FF02006B
:1005EC00BB68D21AFB689A42F7D3C046BD4604B02A
:1005FC0080BD80B584B000AF78600023FB60002321
:10060C00BB607B68002B01D1012311E17B683D228B
:10061C009B5CDBB2002B07D17B683C2200219954F8
:10062C007B68180003F074F97B683D220221995411
:10063C007B681B687A681268126802218A431A6008
:10064C007B681B687A681268126801210A431A6079
:10065C00FFF7A8FF0300BB6010E0FFF7A3FF020049
:10066C00BB68D31A0A2B09D97B683D220321995404
:10067C007B683C22002199540323D9E07B681B68DA
:10068C005B6801221340E8D07B681B685B68012221
:10069C00134000D1BBE07B689B69012B08D17B68C0
:1006AC001B687A681268126880210A431A6007E096
:1006BC007B681B687A681268126880218A431A600A
:1006CC007B68DB69012B08D17B681B687A68126830
:1006DC00126840210A431A6007E07B681B687A683D
:1006EC001268126840218A431A607B681B6A012BCE
:1006FC0008D17B681B687A681268126820210A434B
:10070C001A6007E07B681B687A68126812682021FF
:10071C008A431A607B685B6A012B08D17B681B6873
:10072C007A681268126810210A431A6007E07B6825
:10073C001B687A681268126810218A431A607B68F9
:10074C009B6A012B08D17B681B687A681268126857
:10075C0008210A431A6007E07B681B687A681268F4
:10076C00126808218A431A607B68DB6A012B08D166
:10077C007B681B687A681268126804210A431A6045
:10078C0007E07B681B687A681268126804218A4348
:10079C001A607B681B687A6891687A68D268114322
:1007AC007A68126911437A68526911437A685268FF
:1007BC00013A0A43DA617B681B687A68126812682E
:1007CC0001218A431A60FFF7EDFE0300BB6010E0C5
:1007DC00FFF7E8FE0200BB68D31A0A2B09D97B6825
:1007EC003D22032199547B683C2200219954032318
:1007FC001EE07B681B685B6801221340E8D17B68B4
:10080C001B685B680122134001D10123FB60FB686C
:10081C00012B08D17B6800221A647B683D220121E0
:10082C009954002304E07B683D2204219954012350
:10083C001800BD4604B080BD80B584B000AF7860B0
:10084C0039600023FB603B685B6901229A4013000E
:10085C00FB607B681A687B68196880239B00CB5807
:10086C006D4919403B685B6A1B020B43012119431C
:10087C0080239B00D1507B681A687B68196887239A
:10088C009B00CB58F968C943194087239B00D15072
:10089C003B68DB69002B2ED17B681A687B68196872
:1008AC0083239B00CB58F968C943194083239B00D1
:1008BC00D1507B681A683B6858693B68DB6819043F
:1008CC003B685B681B041B0C194303004833DB00BB
:1008DC0099507B6819683B6858693B689B681A0497
:1008EC003B681B681B041B0C1A4303004833DB00DA
:1008FC00CB1804331A603B68DB69012B2DD17B6864
:10090C001A687B68196883239B00C958FB681943D4
:10091C0083239B00D1507B681A683B6858693B68FD
:10092C001B6819043B685B681B041B0C1943030010
:10093C004833DB0099507B6819683B6858693B6801
:10094C009B681A043B68DB681B041B0C1A430300EE
:10095C004833DB00CB1804331A603B689B69002BCF
:10096C000DD17B681A687B68196881239B00CB5872
:10097C00F968C943194081239B00D1500BE07B6877
:10098C001A687B68196881239B00C958FB68194356
:10099C0081239B00D1503B681B69002B0DD17B68D8
:1009AC001A687B68196885239B00CB58F968C94382
:1009BC00194085239B00D1500BE07B681A687B683B
:1009CC00196885239B00C958FB68194385239B0034
:1009DC00D1503B681B6A012B0BD17B681A687B6872
:1009EC00196887239B00C958FB68194387239B0010
:1009FC00D1507B681A687B68196880239B00CB58A0
:100A0C0001218B43190080239B00D1500023180037
:100A1C00BD4604B080BDC046FFC0FFFF80B584B0AA
:100A2C0000AF786039600423FB600023BB607B68F7
:100A3C001B689A688023DB041A408023DB049A42EB
:100A4C0014D07B681B689A6880231B051A4080238E
:100A5C001B059A420AD07B681B689A6880235B0549
:100A6C001A4080235B059A4200D081E17B683C22CE
:100A7C009B5C012B01D102237FE17B683C2201218D
:100A8C0099547B683D229B5CDBB2322B08D0622BE5
:100A9C000BD0222B0ED17B683D22422199540EE0C3
:100AAC007B683D225221995409E07B683D227221DA
:100ABC00995404E07B683D2212219954C0467B680E
:100ACC001B689A688023DB04134002D00023FB6070
:100ADC000BE07B681B689A6880231B05134002D0CF
:100AEC000123FB6001E00223FB607B681A687B68D2
:100AFC001B68F96818310901CB5801211940FB68B2
:100B0C0018331B0199507B681B6B9B68002B15D10C
:100B1C007B681A687B681B68F96818310901C95829
:100B2C007B681B6B1B6858057B681B6BDB6803437E
:100B3C001943FB6818331B01995018E07B681A683D
:100B4C007B681B68F96818310901C9587B681B6BF5
:100B5C005B68D8007B681B6B9B6818437B681B6BBE
:100B6C00DB6803431943FB6818331B0199507B68FE
:100B7C001B6B7A68126B12690F210A401A617B6831
:100B8C0019687B681A68FB6818331B01D318043387
:100B9C001B680F2293431A00FB6818331B01CB18F8
:100BAC0004331A607B6819687B681A68FB68183311
:100BBC001B01D31804331A687B681B6B1B691A431F
:100BCC00FB6818331B01CB1804331A607B68186858
:100BDC007B681B6BDB7D1A067B681B6B9B7D1B0488
:100BEC001A437B681B6B5B7D1B021A437B681B6B78
:100BFC001B7D1A43F968C4235B0009014118CB180B
:100C0C001A607B6818687B681B6BDB7E1A067B6836
:100C1C001B6B9B7E1B041A437B681B6B5B7E1B024E
:100C2C001A437B681B6B1B7E1A43F968C6235B0057
:100C3C0009014118CB181A607B681A687B681B681D
:100C4C00F96818310901CB5801211943FB68183395
:100C5C001B019950FFF7A6FC0300BB6039E03B6811
:100C6C00013336D03B68002B07D0FFF79BFC02000A
:100C7C00BB68D21A3B689A422BD97B683D22032170
:100C8C009954FB68002B08D17B681B687A68126842
:100C9C00926880210A439A6015E0FB68012B09D108
:100CAC007B681B687A6812689268802109020A4383
:100CBC009A6008E07B681B687A68126892688021E9
:100CCC0009040A439A607B683C220021995403234F
:100CDC0053E0FB68002B0BD17B681B689B68294A8F
:100CEC001340294A944663445A1E9341DBB219E0DF
:100CFC00FB68012B0BD17B681B689B68234A134054
:100D0C00234A944663445A1E9341DBB20AE07B6843
:100D1C001B689B681F4A13401F4A944663445A1E23
:100D2C009341DBB2002B9AD17B683D229B5CDBB2FA
:100D3C00522B08D0722B0BD0422B0ED17B683D224C
:100D4C00222199540EE07B683D223221995409E00E
:100D5C007B683D226221995404E07B683D2201218D
:100D6C009954C0467B683C2200219954002304E02E
:100D7C007B683D220421995401231800BD4604B020
:100D8C0080BDC04601000004FFFFFFFB000100080E
:100D9C0000FFFFF7000001100000FFEF80B586B0E8
:100DAC0000AFF8607A600B23FB180A1C1A70002342
:100DBC003B6100237B61FB683C229B5C012B01D1D6
:100DCC000223FDE1FB683C22012199540B23FB1803
:100DDC001B78002B1DD1FB683D229B5CDBB2222BC8
:100DEC0011D0FB683D229B5CDBB2422B0BD0FB6825
:100DFC003D229B5CDBB2622B05D0FB683D229B5CE9
:100E0C00DBB2722B05D1FB683C22002199540223E2
:100E1C00D6E10B23FB181B78012B1DD1FB683D225F
:100E2C009B5CDBB2322B11D0FB683D229B5CDBB2AE
:100E3C00522B0BD0FB683D229B5CDBB2622B05D0A6
:100E4C00FB683D229B5CDBB2722B05D1FB683C221C
:100E5C00002199540223B3E10B23FB181B78002BC0
:100E6C001ED1FB683D229B5CDBB2322B08D0522B8F
:100E7C000BD0122B0ED1FB683D22422199542DE050
:100E8C00FB683D226221995428E0FB683D227221C7
:100E9C00995423E0FB683D2222219954C0461DE061
:100EAC00FB683D229B5CDBB2222B08D0422B0BD083
:100EBC00122B0ED1FB683D22522199540EE0FB6897
:100ECC003D226221995409E0FB683D22722199541C
:100EDC0004E0FB683D2232219954C046FFF762FBC7
:100EEC0003003B6117E07B68013314D07B68002B57
:100EFC0007D0FFF757FB02003B69D21A7B689A4276
:100F0C0009D9FB683D2203219954FB683C2200213E
:100F1C009954032354E10B23FB181B78002B0AD1A3
:100F2C00FB681B68DB68DBB21A00032313405A42D0
:100F3C005341DBB209E0FB681B681B69DBB21A008A
:100F4C00032313405A425341DBB2002BCBD10B236A
:100F5C00FB181B78002B03D1FB685B6B7B6102E0F9
:100F6C00FB689B6B7B61FB681B680B22BA181278C1
:100F7C001B321201D35804221A407B699A607B6998
:100F8C009B68002B0DD1FB681B680B22BA181278DA
:100F9C001B321201D3585B0D5B055A0D7B691A602D
:100FAC000CE0FB681B680B22BA1812781B3212017A
:100FBC00D358DB08DB00DA087B695A60FB681B68D6
:100FCC000B22BA1812781B321201D3585B0801227B
:100FDC001A407B69DA60FB681A680B23FB181B78D4
:100FEC001B331B01D31804331B680F221A407B6977
:100FFC001A61FB681A680B23FB181B781B331B0147
:10100C00D31804331B681B0AFF221A407B69DA6170
:10101C000B23FB181A787B691A62FB6819680B237F
:10102C00FB181A78DC235B0012018A18D3181B6892
:10103C00DAB27B691A75FB6819680B23FB181A78EE
:10104C00DC235B0012018A18D3181B681B0ADAB266
:10105C007B695A75FB6819680B23FB181A78DC231B
:10106C005B0012018A18D3181B681B0CDAB27B695F
:10107C009A75FB6819680B23FB181A78DC235B0044
:10108C0012018A18D3181B681B0EDAB27B69DA7549
:10109C00FB6819680B23FB181A78DE235B0012011E
:1010AC008A18D3181B68DAB27B691A76FB68196840
:1010BC000B23FB181A78DE235B0012018A18D31855
:1010CC001B681B0ADAB27B695A76FB6819680B231A
:1010DC00FB181A78DE235B0012018A18D3181B68E0
:1010EC001B0CDAB27B699A76FB6819680B23FB1828
:1010FC001A78DE235B0012018A18D3181B681B0EAA
:10110C00DAB27B69DA760B23FB181B78002B08D13B
:10111C00FB681B68FA681268D26820210A43DA60FF
:10112C0007E0FB681B68FA681268126920210A4301
:10113C001A610B23FB181B78002B1ED1FB683D2278
:10114C009B5CDBB2622B08D0722B0BD0422B0ED1E6
:10115C00FB683D22122199542DE0FB683D2232217F
:10116C00995428E0FB683D225221995423E0FB68F6
:10117C003D2201219954C0461DE0FB683D229B5C39
:10118C00DBB2622B08D0722B0BD0522B0ED1FB682A
:10119C003D22122199540EE0FB683D2222219954E4
:1011AC0009E0FB683D224221995404E0FB683D2292
:1011BC0001219954C046FB683C220021995400231C
:1011CC001800BD4606B080BD80B582B000AF786017
:1011DC007B683D229B5CDBB21800BD4602B080BD33
:1011EC0080B582B000AF0200FB1D1A70064BFA1DD1
:1011FC00127811001F220A40012191400A001A6046
:10120C00C046BD4602B080BD00E100E0B0B582B082
:10121C0000AF02003960FB1D1A70FB1D1B787F2B81
:10122C0032D92F4CFB1D1B781A000F231340083B9F
:10123C0099082B4AFB1D1B7818000F230340083B11
:10124C009B0806339B00D31804331B68FA1D1278D5
:10125C00100003220240D200FF2090400200D24333
:10126C001A403B689B01FF201840FB1D1B781D009A
:10127C0003232B40DB00984003001A438B1D9B007B
:10128C00E31804331A6027E0164CFB1D1B785BB285
:10129C009B081449FA1D127852B29208C03292007F
:1012AC005258F91D0978080003210140C900FF209C
:1012BC0088400100C94311403A689201FF20104058
:1012CC00FA1D1278150003222A40D2009040020029
:1012DC000A43C0339B001A51C046BD4602B0B0BD94
:1012EC0000ED00E000E100E080B582B000AF786076
:1012FC007B68013B0C4A934201D9012310E00B4B54
:10130C007A68013A5A6001235B4203211800FFF707
:10131C007DFF064B00229A60044B07221A600023C3
:10132C001800BD4602B080BDFFFFFF0010E000E0DA
:10133C0080B584B000AFB9607A600F23FB18021C33
:10134C001A70BA680F23FB181B785BB211001800D7
:10135C00FFF75CFFC046BD4604B080BD80B582B0CF
:10136C0000AF0200FB1D1A70FB1D1B785BB218004E
:10137C00FFF736FFC046BD4602B080BD80B582B0D7
:10138C0000AF78607B681800FFF7AEFF0300180011
:10139C00BD4602B080BD000080B582B000AF786061
:1013AC007B68042B06D1084B074A126804210A43B8
:1013BC001A6005E0044B044A126804218A431A603F
:1013CC00C046BD4602B080BD10E000E080B500AF65
:1013DC0000F003F8C046BD4680BD80B500AFC046E6
:1013EC00BD4680BD80B584B000AF78600023FB6043
:1013FC007B68002B01D1012342E07B682122022172
:10140C0099547B681B681B68FB60FB681E4A134081
:10141C00FB607B685A687B689B681A437B68DB6857
:10142C001A437B681B691A437B685B691A437B68A8
:10143C009B691A437B68DB691343FA681343FB60AF
:10144C007B681B68FA681A607B68180000F0C0F8AB
:10145C007B6800229A627B680022DA627B68002239
:10146C001A637B6800225A637B6800229A637B684C
:10147C002122012199547B682022002199540023B8
:10148C001800BD4604B080BD0FC0FFFF80B584B00E
:10149C0000AF78607B68DB6B1B68FB607B681B684C
:1014AC001B68BB607B681B6C04229A401300FA68B3
:1014BC00134024D0BB680422134020D07B681B68E7
:1014CC001B682022134007D17B681B687A6812685E
:1014DC00126804218A431A607B68DB6B7A68126C91
:1014EC00042191400A005A607B68DB6A002B00D112
:1014FC006AE07B68DB6A7A681000984764E07B6876
:10150C001B6C02229A401300FA6813402BD0BB6864
:10151C000222134027D07B681B681B6820221340D3
:10152C000BD17B681B687A68126812680A218A439F
:10153C001A607B682122012199547B68DB6B7A68E5
:10154C00126C022191400A005A607B682022002113
:10155C0099547B689B6A002B36D07B689B6A7A68AF
:10156C001000984730E07B681B6C08229A401300EF
:10157C00FA68134028D0BB680822134024D07B683B
:10158C001B687A68126812680E218A431A607B689D
:10159C00DB6B7A68126C012191400A005A607B68FF
:1015AC0001229A637B682122012199547B682022B5
:1015BC00002199547B681B6B002B05D07B681B6B3F
:1015CC007A6810009847FFE7C046BD4604B080BD5E
:1015DC0080B582B000AF78607B681B681A00144B32
:1015EC009A4210D87B681B68124A944663441421B3
:1015FC001800FEF781FD03009A007B681A647B6873
:10160C000D4ADA630FE07B681B680C4A944663440E
:10161C0014211800FEF770FD03009A007B681A6411
:10162C007B68074ADA63C046BD4602B080BDC0463F
:10163C0007040240F8FFFDBF00000240F8FBFDBFAD
:10164C000004024080B586B000AF7860396000239A
:10165C007B610023FB6000233B6155E13B681B6809
:10166C0001217A6991400A001340FB60FB68002B52
:10167C0000D146E13B685B68022B03D03B685B689A
:10168C00122B23D17B69DA087B6808329200D3587D
:10169C003B617B69072213409B000F229A40130089
:1016AC00DA433B6913403B613B681A697B6907214C
:1016BC000B409B009A4013003A6913433B617B69D2
:1016CC00DA087B68083292003969D1507B681B6854
:1016DC003B617B695B0003229A401300DA433B6950
:1016EC0013403B613B685B6803221A407B695B00DB
:1016FC009A4013003A6913433B617B683A691A605C
:10170C003B685B68012B0BD03B685B68022B07D0F6
:10171C003B685B68112B03D03B685B68122B30D1A4
:10172C007B689B683B617B695B0003229A401300DA
:10173C00DA433B6913403B613B68DA687B695B00C9
:10174C009A4013003A6913433B617B683A699A608B
:10175C007B685B683B6101227B699A401300DA432A
:10176C003B6913403B613B685B681B0901221A40D3
:10177C007B699A4013003A6913433B617B683A6971
:10178C005A607B68DB683B617B695B0003229A4093
:10179C001300DA433B6913403B613B689A687B69F1
:1017AC005B009A4013003A6913433B617B683A69CA
:1017BC00DA603B685A6880235B05134000D1A0E0D7
:1017CC00574B574A926901210A439A61544B9B69C2
:1017DC0001221340BB60BB68524A7B699B080233F1
:1017EC009B009B583B617B69032213409B000F229B
:1017FC009A401300DA433B6913403B617A689023AB
:10180C00DB059A4219D07B68474A934213D07B6818
:10181C00464A93420DD07B68454A934207D07B6879
:10182C00444A934201D1042308E0052306E0032334
:10183C0004E0022302E0012300E000237A69032183
:10184C000A40920093403A6913433B6135497B69E6
:10185C009B0802339B003A695A50374B1B683B611B
:10186C00FB68DA433B6913403B613B685A68802351
:10187C005B02134003D03A69FB6813433B612E4B68
:10188C003A691A602C4B5B683B61FB68DA433B6935
:10189C0013403B613B685A6880239B02134003D082
:1018AC003A69FB6813433B61234B3A695A60224BFC
:1018BC009B683B61FB68DA433B6913403B613B68C7
:1018CC005A6880235B03134003D03A69FB681343C7
:1018DC003B61194B3A699A60174BDB683B61FB68BB
:1018EC00DA433B6913403B613B685A6880239B0396
:1018FC00134003D03A69FB6813433B610E4B3A69C2
:10190C00DA607B6901337B613B681A687B69DA407A
:10191C00131E00D0A2E6C046BD4606B080BDC04630
:10192C00001002400000014000040048000800487C
:10193C00000C0048001000480004014080B582B043
:10194C0000AF786008001100BB1C021C1A807B1CC5
:10195C000A1C1A707B1C1B78002B04D0BB1C1A8829
:10196C007B689A6103E0BB1C1A887B689A62C0464C
:10197C00BD4602B080BD80B582B000AF78600A0071
:10198C00BB1C1A807B685A69BB1C1B885A407B683D
:10199C005A61C046BD4602B080BD000080B586B01D
:1019AC0000AF786000233B617B681B680122134009
:1019BC0000D18DE0C54B5B680C221340042B0ED07C
:1019CC00C24B5B680C221340082B16D1BF4B5A68D4
:1019DC00C0235B021A4080235B029A420DD1BB4BA1
:1019EC001A6880239B02134000D170E07B685B680F
:1019FC00002B00D06BE0012327E37B685B68012B95
:101A0C0007D1B24BB14A1268802149020A431A60CD
:101A1C002FE07B685B68002B0CD1AC4BAB4A126897
:101A2C00AB490A401A60A94BA84A1268A9490A4056
:101A3C001A601EE07B685B68052B0ED1A34BA34A92
:101A4C0012688021C9020A431A60A04B9F4A12688F
:101A5C00802149020A431A600BE09C4B9B4A126896
:101A6C009B490A401A60994B984A126899490A4056
:101A7C001A607B685B68002B14D0FEF793FD0300A3
:101A8C003B6108E0FEF78EFD02003B69D31A642B24
:101A9C0001D90323D9E28D4B1A6880239B02134092
:101AAC00F0D015E0FEF77EFD03003B6108E0FEF789
:101ABC0079FD02003B69D31A642B01D90323C4E2DC
:101ACC00824B1A6880239B021340F0D100E0C04681
:101ADC007B681B680222134000D16CE07B4B5B6877
:101AEC000C2213400ED0794B5B680C221340082B50
:101AFC001FD1764B5A68C0235B021A4080231B020D
:101B0C009A4216D1714B1B680222134005D07B6898
:101B1C00DB68012B01D0012397E26C4A6B4B1B68ED
:101B2C00F8218B4319007B681B69DB000B431360A6
:101B3C0041E07B68DB68002B24D0644B634A12685D
:101B4C0001210A431A60FEF72DFD03003B6108E0FA
:101B5C00FEF728FD02003B69D31A022B01D903239F
:101B6C0073E25A4B1B6802221340F1D0574A574B71
:101B7C001B68F8218B4319007B681B69DB000B4346
:101B8C00136018E0514B514A126801218A431A60C4
:101B9C00FEF708FD03003B6108E0FEF703FD0200C1
:101BAC003B69D31A022B01D903234EE2474B1B6826
:101BBC0002221340F1D17B681B680822134036D0F7
:101BCC007B68DB69002B19D0404B404A526A0121DB
:101BDC000A435A62FEF7E6FC03003B6108E0FEF79D
:101BEC00E1FC02003B69D31A022B01D903232CE23E
:101BFC00364B5B6A02221340F1D018E0334B334A68
:101C0C00526A01218A435A62FEF7CCFC03003B6105
:101C1C0008E0FEF7C7FC02003B69D31A022B01D97E
:101C2C00032312E2294B5B6A02221340F1D17B6839
:101C3C001B680422134000D1B6E01723FB180022C6
:101C4C001A70224BDA6980235B05134011D11F4BAC
:101C5C001E4AD269802149050A43DA611B4BDA69B5
:101C6C0080235B051340FB60FB681723FB180122E4
:101C7C001A70194B1A6880235B0013401AD1164B4B
:101C8C00154A1268802149000A431A60FEF78AFC43
:101C9C0003003B6108E0FEF785FC02003B69D31AA8
:101CAC00642B01D90323D0E10B4B1A6880235B0012
:101CBC001340F0D07B689B68012B0FD1034B034A78
:101CCC00126A01210A431A6236E0C0460010024033
:101CDC00FFFFFEFFFFFFFBFF007000407B689B686F
:101CEC00002B0CD1C94BC94A126A01218A431A62D2
:101CFC00C64BC64A126A04218A431A621CE07B68EE
:101D0C009B68052B0CD1C14BC04A126A04210A43B3
:101D1C001A62BE4BBD4A126A01210A431A620BE0D9
:101D2C00BA4BBA4A126A01218A431A62B74BB74AB4
:101D3C00126A04218A431A627B689B68002B14D0B8
:101D4C00FEF730FC03003B6109E0FEF72BFC0200C0
:101D5C003B69D31AAE4A934201D9032375E1AB4BCD
:101D6C001B6A02221340F0D013E0FEF71BFC0300A9
:101D7C003B6109E0FEF716FC02003B69D31AA44A4A
:101D8C00934201D9032360E1A04B1B6A022213404A
:101D9C00F0D11723FB181B78012B05D19B4B9B4AC9
:101DAC00D2699C490A40DA617B681B681022134097
:101DBC0063D07B685B69012B2AD1944B934A526B9D
:101DCC0004210A435A63914B904A526B01210A43F6
:101DDC005A63FEF7E7FB03003B6108E0FEF7E2FB0A
:101DEC0002003B69D31A022B01D903232DE1874B47
:101DFC005B6B02221340F1D0844A844B5B6BF8215D
:101E0C008B4319007B689B69DB000B43536334E005
:101E1C007B685B69053311D17C4B7C4A526B042186
:101E2C008A435A63794A794B5B6BF8218B431900CF
:101E3C007B689B69DB000B4353631EE0734B734A57
:101E4C00526B04210A435A63704B704A526B012146
:101E5C008A435A63FEF7A6FB03003B6108E0FEF7DA
:101E6C00A1FB02003B69D31A022B01D90323ECE03E
:101E7C00664B5B6B02221340F1D17B681B682022FE
:101E8C0013405CD0614B5B680C2213400C2B0ED0C2
:101E9C005E4B5B680C221340082B14D15B4B5A68C9
:101EAC00C0235B021A40C0235B029A420BD1574BF2
:101EBC005A6B80235B02134040D07B681B6A012B5A
:101ECC003CD00123C1E07B681B6A002B1BD04F4B1D
:101EDC004E4A526B802149020A435A63FEF762FB59
:101EEC0003003B6108E0FEF75DFB02003B69D31A7F
:101EFC00022B01D90323A8E0444B5A6B80235B02CD
:101F0C001340F0D01BE0414B404A526B42490A400F
:101F1C005A63FEF747FB03003B6108E0FEF742FB08
:101F2C0002003B69D31A022B01D903238DE0374BF6
:101F3C005A6B80235B021340F0D100E0C0467B68F3
:101F4C005B6A002B00D17FE0304B5B680C221340A6
:101F5C00082B00D176E07B685B6A022B4BD12B4BB4
:101F6C002A4A12682D490A401A60FEF71BFB03002F
:101F7C003B6108E0FEF716FB02003B69D31A022B0B
:101F8C0001D9032361E0214B1A6880239B04134081
:101F9C00F0D11E4A1D4BDB6A0F218B4319007B6865
:101FAC001B6B0B43D362194A184B5B681C491940D5
:101FBC007B68D86A7B689B6A03430B435360134B63
:101FCC00124A1268802149040A431A60FEF7EAFAA1
:101FDC0003003B6108E0FEF7E5FA02003B69D31A07
:101FEC00022B01D9032330E0084B1A6880239B0491
:101FFC001340F0D028E0054B044A126807490A4008
:10200C001A60FEF7CFFA03003B6114E000100240A7
:10201C0088130000FFFFFFEFFFFFFEFFFFFFFFFE37
:10202C00FF7FC2FFFEF7BEFA02003B69D31A022BF8
:10203C0001D9032309E0074B1A6880239B04134042
:10204C00F0D101E0012300E000231800BD4606B0EA
:10205C0080BDC0460010024080B584B000AF7860EF
:10206C0039600023FB607A4B1B6801221A403B68E5
:10207C009A4211D2764B764A126801218A4311009A
:10208C003A680A431A60724B1B6801221A403B687B
:10209C009A4201D00123D7E07B681B6802221340CF
:1020AC0009D06C4A6B4B5B68F0218B4319007B6841
:1020BC009B680B4353607B681B680122134000D163
:1020CC0089E07B685B68012B07D1624B1A6880231F
:1020DC009B02134020D10123B6E07B685B68022B86
:1020EC0007D15C4B1A6880239B04134014D1012345
:1020FC00AAE07B685B68032B07D1564B5A6B802395
:10210C005B02134008D101239EE0524B1B68022254
:10211C00134001D1012397E04E4A4E4B5B680321DB
:10212C008B4319007B685B680B435360FEF73AFAEC
:10213C000300FB607B685B68012B11D109E0FEF7A3
:10214C0031FA0200FB68D31A434A934201D90323A4
:10215C007AE0404B5B680C221340042BEFD13AE041
:10216C007B685B68022B11D109E0FEF71BFA0200B9
:10217C00FB68D31A384A934201D9032364E0354BE8
:10218C005B680C221340082BEFD124E07B685B6862
:10219C00032B1BD109E0FEF705FA0200FB68D31AEA
:1021AC002D4A934201D903234EE02A4B5B680C2243
:1021BC0013400C2BEFD10EE0FEF7F4F90200FB6894
:1021CC00D31A254A934201D903233DE0214B5B6886
:1021DC000C221340F0D11E4B1B6801221A403B68A5
:1021EC009A4211D91A4B1A4A126801218A431100DA
:1021FC003A680A431A60164B1B6801221A403B6866
:10220C009A4201D001231FE07B681B680422134013
:10221C0008D0104A0F4B5B68104919407B68DB688B
:10222C000B43536000F020F801000A4B5B681B095C
:10223C000F2213400A4AD35C0A00DA40094B1A6099
:10224C000020FEF787F900231800BD4604B080BDBE
:10225C00002002400010024088130000FFF8FFFF2E
:10226C00CC3C00081800002090B58FB000AF1423B0
:10227C00FB18374A13CA13C312681A603B1D354A40
:10228C0013CA13C312681A600023FB620023BB62DB
:10229C0000237B6300237B6200233B632E4B5B6834
:1022AC00FB62FB6A0C221340082B06D00C2B43D08C
:1022BC00042B44D1294B3B6344E0FB6A9B0C0F225B
:1022CC0013401422BA18D35C7B62234BDB6A0F22B7
:1022DC0013403A1DD35CBB62FA6AC0235B021A40FE
:1022EC0080235B029A4209D1B96A1C48FDF704FFAE
:1022FC0003001A007B6A53437B631AE0FA6AC0231B
:10230C005B021A40C0235B029A4209D1B96A144895
:10231C00FDF7F2FE03001A007B6A53437B6308E06F
:10232C00B96A0E48FDF7E8FE03001A007B6A5343B6
:10233C007B637B6B3B6305E0094B3B6302E0074B24
:10234C003B63C0463B6B1800BD460FB090BDC0460A
:10235C00403C0008503C00080010024000127A007B
:10236C00006CDC0280B500AF024B1B681800BD4648
:10237C0080BDC0461800002080B584B000AF7860E6
:10238C007B68002B01D1012388E07B6800229A62D4
:10239C007B685D229B5CDBB2002B07D17B685C22E7
:1023AC00002199547B68180001F0EEFA7B685D22DD
:1023BC00022199547B681B687A6812681268402164
:1023CC008A431A607B68DA68E023DB009A4202D900
:1023DC000023FB6002E080235B01FB607B68DA6812
:1023EC00F0231B019A4208D07B68DA68E023DB00FB
:1023FC009A4202D07B6800229A627B681B6B002B8E
:10240C000CD17B68DA68E023DB009A4203D97B6845
:10241C0002221A6302E07B6801221A637B681B6844
:10242C007A6851687A68926811437A681269114324
:10243C007A68526911437A6890698022920002404E
:10244C0011437A68D26911437A68126A11437A6827
:10245C00926A0A431A607B681B687A689269120C4C
:10246C00042111407A68526A11437A68526B114305
:10247C007A68D2681143FA680A435A607B681B6811
:10248C007A681268D26907490A40DA617B680022CF
:10249C001A667B685D220121995400231800BD4601
:1024AC0004B080BDFFF7FFFF80B588B000AFF860C7
:1024BC00B9603B60BB1D1A800023BB611F23FB1856
:1024CC0000221A70FB685C229B5C012B01D1022359
:1024DC004FE1FB685C2201219954FEF763F803007D
:1024EC00BB61FB685D229B5CDBB2012B04D01F231C
:1024FC00FB1802221A7031E1BB68002B03D0BB1D04
:10250C001B88002B04D11F23FB1801221A7025E114
:10251C00FB685D2203219954FB6800221A66FB6854
:10252C00BA689A63FB68BA1D12889A87FB68BA1D51
:10253C001288DA87FB6800221A64FB6844220021A7
:10254C009952FB68462200219952FB6800221A65B9
:10255C00FB680022DA64FB689A6880231B029A42AB
:10256C0008D1FB681B68FA68126812688021C901DF
:10257C000A431A60FB681B681B6840221340402BFF
:10258C0007D0FB681B68FA681268126840210A437E
:10259C001A60FB68DA68E023DB009A4248D9FB68D2
:1025AC005B68002B04D0FB68DB8F9BB2012B39D10D
:1025BC00FB681B68BA681288DA60BB680233BB60C0
:1025CC00FB68DB8F9BB2013B9AB2FB68DA8729E090
:1025DC00FB681B689B6802221340022B0FD1FB681F
:1025EC001B68BA681288DA60BB680233BB60FB6890
:1025FC00DB8F9BB2013B9AB2FB68DA8712E03B6837
:10260C00002B0AD03B6801330CD0FDF7CBFF020046
:10261C00BB69D21A3B689A4204D31F23FB180322CE
:10262C001A709BE0FB68DB8F9BB2002BD0D173E060
:10263C00FB685B68002B04D0FB68DB8F9BB2012B23
:10264C0065D1FB68DB8F9BB2012B0FD9FB681B6834
:10265C00BA681288DA60BB680233BB60FB68DB8F38
:10266C009BB2023B9AB2FB68DA8750E0FB681B68AE
:10267C000C331A00BB68591CB9601B781370FB68CB
:10268C00DB8F9BB2013B9AB2FB68DA873FE0FB68B9
:10269C001B689B6802221340022B25D1FB68DB8F41
:1026AC009BB2012B0FD9FB681B68BA681288DA60E1
:1026BC00BB680233BB60FB68DB8F9BB2023B9AB2F8
:1026CC00FB68DA8723E0FB681B680C331A00BB68D5
:1026DC00591CB9601B781370FB68DB8F9BB2013BF4
:1026EC009AB2FB68DA8712E03B68002B0AD03B6891
:1026FC0001330CD0FDF756FF0200BB69D21A3B68C0
:10270C009A4204D31F23FB1803221A7026E0FB689D
:10271C00DB8F9BB2002BBAD1BA693968FB68180001
:10272C0000F0CEFC031E02D0FB6820221A66FB6868
:10273C009B68002B0AD100237B61FB681B68DB685C
:10274C007B61FB681B689B687B617B69FB681B6E0C
:10275C00002B03D01F23FB1801221A70FB685D228B
:10276C0001219954FB685C22002199541F23FB180A
:10277C001B781800BD4608B080BD000090B589B02C
:10278C0002AFF860B9603B60BB1D1A8000233B614F
:10279C001723FB1800221A70FB685A6882235B000F
:1027AC009A4213D1FB689B68002B0FD1FB685D220A
:1027BC0004219954BB1D1C88BA68B968F8683B6839
:1027CC000093230000F016F903000AE1FB685C2279
:1027DC009B5C012B01D1022303E1FB685C220121EC
:1027EC009954FDF7DFFE03003B61FB685D229B5CA7
:1027FC00DBB2012B04D01723FB1802221A70E5E080
:10280C00BB68002B03D0BB1D1B88002B04D11723E6
:10281C00FB1801221A70D9E0FB685D22042199543F
:10282C00FB6800221A66FB68BA681A64FB68BA1D5A
:10283C00442112885A52FB68BA1D462112885A52FA
:10284C00FB6800229A63FB6800229A87FB680022CF
:10285C00DA87FB680022DA64FB6800221A65FB68E1
:10286C00DA68E023DB009A4208D9FB681B68FA6837
:10287C00126852685D490A405A6008E0FB681B68A0
:10288C00FA6812685268802149010A435A60FB6851
:10289C009A6880231B029A4207D1FB681B68FA686E
:1028AC001268126852490A401A60FB681B681B6860
:1028BC0040221340402B07D0FB681B68FA68126853
:1028CC00126840210A431A60FB68DA68E023DB00D7
:1028DC009A4262D82DE0FB681B689B68012213406A
:1028EC00012B13D1FB681B680C331B78DAB2BB6865
:1028FC001A70BB680133BB60FB6846229B5A9BB2C3
:10290C00013B99B2FB684622995212E03B68002BBE
:10291C000AD03B6801330CD0FDF744FE02003B6942
:10292C00D21A3B689A4204D31723FB1803221A705D
:10293C004CE0FB6846229B5A9BB2002BCBD132E079
:10294C00FB681B689B6801221340012B12D1FB68AA
:10295C001B68DB689AB2BB681A80BB680233BB6029
:10296C00FB6846229B5A9BB2013B99B2FB684622FC
:10297C00995212E03B68002B0AD03B6801330CD013
:10298C00FDF710FE02003B69D21A3B689A4204D351
:10299C001723FB1803221A7018E0FB6846229B5A77
:1029AC009BB2002BCCD13A693968FB68180000F057
:1029BC0029FB031E02D0FB6820221A66FB681B6EE3
:1029CC00002B03D01723FB1801221A70FB685D2221
:1029DC0001219954FB685C22002199541723FB18A0
:1029EC001B781800BD4607B090BDC046FFEFFFFF37
:1029FC00FFBFFFFF80B58AB000AFF860B9607A60A6
:102A0C001A00BB1C1A800023FB610023BB6100234E
:102A1C007B6101237B622323FB1800221A70FB6865
:102A2C005C229B5C012B01D10223F1E1FB685C224F
:102A3C0001219954FDF7B6FD03007B61FB685D2213
:102A4C009B5CDBB2FB61FB685B68BB61FB69012BC8
:102A5C0010D0BA6982235B009A4206D1FB689B684E
:102A6C00002B02D1FB69042B04D02323FB18022278
:102A7C001A70C2E1BB68002B06D07B68002B03D018
:102A8C00BB1C1B88002B04D12323FB1801221A70BA
:102A9C00B3E1FB685D229B5CDBB2042B03D0FB68CB
:102AAC005D2205219954FB6800221A66FB687A683E
:102ABC001A64FB68BA1C462112885A52FB68BA1C6D
:102ACC00442112885A52FB68BA689A63FB68BA1C94
:102ADC001288DA87FB68BA1C12889A87FB68002276
:102AEC00DA64FB6800221A65FB68DA68E023DB0015
:102AFC009A4205D8FB6846229B5A9BB2012B08D9F7
:102B0C00FB681B68FA6812685268C3490A405A602D
:102B1C0008E0FB681B68FA6812685268802149015A
:102B2C000A435A60FB681B681B6840221340402B09
:102B3C0007D0FB681B68FA681268126840210A43C8
:102B4C001A60FB68DA68E023DB009A4200D875E073
:102B5C00FB685B68002B04D0FB68DB8F9BB2012BFE
:102B6C0060D1FB681B68BA681288DA60BB680233F4
:102B7C00BB60FB68DB8F9BB2013B9AB2FB68DA87C8
:102B8C0050E07B6A002B1CD0FB68DB8F9BB2002BC8
:102B9C0017D0FB681B689B6802221340022B10D1D4
:102BAC00FB681B68BA681288DA60BB680233BB60CA
:102BBC00FB68DB8F9BB2013B9AB2FB68DA87002380
:102BCC007B62FB6846229B5A9BB2002B1AD0FB6897
:102BDC001B689B6801221340012B13D1FB681B68F7
:102BEC00DB689AB27B681A807B6802337B60FB6877
:102BFC0046229B5A9BB2013B99B2FB6846229952E2
:102C0C0001237B623B6B01330CD0FDF7CBFC020044
:102C1C007B69D21A3B6B9A4204D32323FB18032201
:102C2C001A70EAE0FB68DB8F9BB2002BA9D1FB6822
:102C3C0046229B5A9BB2002BA3D1CBE0FB685B686E
:102C4C00002B05D0FB68DB8F9BB2012B00D0B4E0CE
:102C5C00FB68DB8F9BB2012B0FD9FB681B68BA6832
:102C6C001288DA60BB680233BB60FB68DB8F9BB2F7
:102C7C00023B9AB2FB68DA879FE0FB681B680C3357
:102C8C001A00BB68591CB9601B781370FB68DB8F8A
:102C9C009BB2013B9AB2FB68DA878EE07B6A002B11
:102CAC0032D0FB68DB8F9BB2002B2DD0FB681B68EE
:102CBC009B6802221340022B26D1FB68DB8F9BB250
:102CCC00012B0FD9FB681B68BA681288DA60BB68E5
:102CDC000233BB60FB68DB8F9BB2023B9AB2FB6892
:102CEC00DA870FE0FB681B680C331A00BB68591CB1
:102CFC00B9601B781370FB68DB8F9BB2013B9AB2F7
:102D0C00FB68DA8700237B62FB6846229B5A9BB2E6
:102D1C00002B42D0FB681B689B6801221340012BDF
:102D2C003BD1FB6846229B5A9BB2012B21D9FB68F5
:102D3C001B68DB689AB27B681A807B6802337B6005
:102D4C00FB6846229B5A9BB2023B99B2FB68462217
:102D5C009952FB6846229B5A9BB2012B1BD8FB68ED
:102D6C001B68FA6812685268802149010A435A604C
:102D7C0011E07B685A1C7A60FA6812680C3212787F
:102D8C00D2B21A70FB6846229B5A9BB2013B99B295
:102D9C00FB684622995201237B623B6B01330CD0BA
:102DAC00FDF700FC02007B69D21A3B6B9A4204D3FC
:102DBC002323FB1803221A701FE0FB68DB8F9BB2E6
:102DCC00002B00D06AE7FB6846229B5A9BB2002B73
:102DDC0000D063E77A69396BFB68180000F070F972
:102DEC00031E02D0FB6820221A66FB681B6E002BA8
:102DFC0003D02323FB1801221A70FB685D220121EA
:102E0C009954FB685C22002199542323FB181B78EE
:102E1C001800BD460AB080BDFFEFFFFF80B582B041
:102E2C0000AF78607B681B6E1800BD4602B080BD99
:102E3C0080B584B000AFF860B9607A603B6050E058
:102E4C003B6801334DD03B68002B07D0FDF7AAFB44
:102E5C000200BB69D21A3B689A4242D3FB681B68DA
:102E6C00FA6812685268E0218A435A60FB685A6813
:102E7C0082235B009A4213D1FB689A6880231B0261
:102E8C009A4205D0FB689A688023DB009A4207D1EE
:102E9C00FB681B68FA681268126840218A431A6042
:102EAC00FB689A6A80239B019A4210D1FB681B68CD
:102EBC00FA681268126814490A401A60FB681B68A9
:102ECC00FA6812681268802189010A431A60FB684B
:102EDC005D2201219954FB685C2200219954032343
:102EEC000EE0FB681B689B68BA681A40BB689A4284
:102EFC0001D1012300E000237A689342A0D1002382
:102F0C001800BD4604B080BDFFDFFFFF80B586B062
:102F1C0000AFF860B9607A603B6063E0BA68C023C8
:102F2C00DB009A420DD17B68002B0AD1FB681B6831
:102F3C000C331B78DAB21723FB181A701723FB1803
:102F4C001B783B6801334DD03B68002B07D0FDF755
:102F5C0029FB02003B6AD21A3B689A4242D3FB68B7
:102F6C001B68FA6812685268E0218A435A60FB6851
:102F7C005A6882235B009A4213D1FB689A688023BB
:102F8C001B029A4205D0FB689A688023DB009A42A8
:102F9C0007D1FB681B68FA681268126840218A43E3
:102FAC001A60FB689A6A80239B019A4210D1FB68D5
:102FBC001B68FA681268126811490A401A60FB68AB
:102FCC001B68FA6812681268802189010A431A602A
:102FDC00FB685D2201219954FB685C220021995405
:102FEC00032308E0FB681B689B68BA681A407B687F
:102FFC009A4293D100231800BD4606B080BDC0464E
:10300C00FFDFFFFF80B586B002AFF860B9607A6071
:10301C00FB685A6882235B009A4213D1FB689A685A
:10302C0080231B029A4205D0FB689A688023DB0040
:10303C009A4207D1FB681B68FA6812681268402133
:10304C008A431A60BA68F8687B6800931300002200
:10305C008021FFF7EDFE031E07D0FB681B6E2022BC
:10306C001A43FB681A66032326E0FB685A6882231E
:10307C005B009A421FD1FB689A6880231B029A421C
:10308C0005D0FB689A688023DB009A4213D1BA689A
:10309C00C023D900F8687B68009313000022FFF767
:1030AC0035FF031E07D0FB681B6E20221A43FB68FA
:1030BC001A66032300E000231800BD4604B080BD4F
:1030CC0080B586B002AFF860B9607A60BA68C02388
:1030DC005901F8687B68009313000022FFF716FF74
:1030EC00031E07D0FB681B6E20221A43FB681A666E
:1030FC00032327E0BA68F8687B680093130000226A
:10310C008021FFF795FE031E07D0FB681B6E202263
:10311C001A43FB681A66032314E0BA68C023D9006B
:10312C00F8687B68009313000022FFF7EFFE031E84
:10313C0007D0FB681B6E20221A43FB681A66032318
:10314C0000E000231800BD4604B080BD80B584B0FB
:10315C0000AF0200FB1D1A70BB1D0A1C1A70FB1D70
:10316C001B781B02FB60FB68084A934204DDFB687A
:10317C00074A94466344FB60BB1D1B78FA68D3185E
:10318C00FB60FB681800BD4604B080BDFF7F0000EB
:10319C000100FFFF80B584B000AFF860B9607A60C1
:1031AC009023DB05002210211800FEF7C7FB7B687B
:1031BC009AB20C4B1B68B968F868FFF775F9C046F2
:1031CC00FB685D229B5CDBB2022BF9D09023DB0504
:1031DC00012210211800FEF7B1FBC046BD4604B019
:1031EC0080BDC0461400002080B584B000AF78606C
:1031FC000A00FB1C1A70FB1C1B78803BDAB2FB1C10
:10320C001A709023DB05002210211800FEF796FBA4
:10321C00114B1B68F91C78680122FFF745F90E4B1E
:10322C001B680F22B91878680122FFF7A7FAC0466D
:10323C007B685D229B5CDBB2022BF9D09023DB0513
:10324C00012210211800FEF779FB0F23FB181B78C5
:10325C001800BD4604B080BD1400002080B582B0BB
:10326C0000AF0200FB1D1A70BB1D0A1C1A70BB1D9F
:10327C001A78FB1D1B7811001800FFF767FF03007D
:10328C001800FDF7E5F8021C054B1B68191C101CF7
:10329C00FCF7BEFF031C181CBD4602B080BDC04627
:1032AC001000002090B5A3B000AF7423FB181800D9
:1032BC0006231A00002100F0A9FCFDF737F900F0F5
:1032CC0085F9FA239B001800FDF776F95023FB18BB
:1032DC0000221A605023FB1800225A605023FB185E
:1032EC0000229A605023FB180022DA605023FB184E
:1032FC0006221A613B1D00221A603B1D00225A60F7
:10330C003B1D00229A603B1D0022DA603B1D00220F
:10331C001A613B1D00225A623B1D00225A613B1D63
:10332C0001229A613B1D0022DA613B1D01221A62C7
:10333C003B1D00225A629C4B5022BA181A639A4BBE
:10334C002C22BA185A6300F03DFA00F01DFA00F076
:10335C00D5F900F08FF99023DB050122102118001C
:10336C00FEF7ECFA3A1D904B11001800FDF764FAC9
:10337C00031E04D08D4B9D21180000F08BFA902376
:10338C00DB05002210211800FEF7D8FA884989487D
:10339C0032230222FFF788F8C046864B5D229B5CE5
:1033AC00DBB2022BF9D09023DB050122102118008F
:1033BC00FEF7C4FA01238422BA18136024E0842394
:1033CC00FB181B685A007A4BD1187A4B0222180052
:1033DC00FFF7E0FE8423FB181B685C1E8423FB189C
:1033EC001B685B00724AD25C724B11001800FFF72D
:1033FC00FBFE03001A00704B1A558423FB181B6844
:10340C0001338422BA1813608423FB181B68062B23
:10341C00D5DD80235B01694A19001000FEF7ABFA79
:10342C007423FB18A8221A709023DB0500221021AC
:10343C001800FEF783FA7423F9185E48052301225D
:10344C00FFF732F87423F9185A4805230622FFF7C0
:10345C0095F9C046574B5D229B5CDBB2022BF9D031
:10346C009023DB05012210211800FEF767FA0023D8
:10347C008022BA1813601EE07423FA188023FB18FC
:10348C001B68D31819785023FA188023FB181B6873
:10349C00D31814330A1C1A707423FA188023FB18DF
:1034AC001B68D31800221A708023FB181B68013389
:1034BC008022BA1813608023FB181B68052BDBDDF8
:1034CC00394B0A211800FDF7A9FA031E04D0374B1B
:1034DC00D621180000F0DEF9334B1800FDF774FE0E
:1034EC000300012B01D0012359E02F4B0A220021AC
:1034FC001800FDF753FC031E04D02C4BE1211800DF
:10350C0000F0C8F9284B1800FDF75EFE0300012BF4
:10351C0001D0012343E00023FB670EE02C23FA18B3
:10352C00FB6FD318143319787423FA18FB6FD31864
:10353C000A1C1A70FB6F0133FB67FB6F052BEDDD6B
:10354C007423FB185A787423FB181B78190010008D
:10355C00FFF784FE021C1A4B1A607423FB18DA78EE
:10356C007423FB189B7819001000FFF777FE021CE0
:10357C00144B1A607423FB185A797423FB181B79AB
:10358C0019001000FFF76AFE021C0F4B1A60802313
:10359C005B010A4A19001000FEF7EDF939E7180033
:1035AC00BD4623B090BDC04654000020603C0008CE
:1035BC000000002098000020380000200004004883
:1035CC0040000020440000204800002080B592B04C
:1035DC0000AF1423FB1820221A601423FB180122BD
:1035EC001A621423FB1800225A621423FB181800C9
:1035FC00FEF7D4F9031E07D00C23FF331A001C4B23
:10360C001100180000F046F93B1D07221A603B1D03
:10361C0003225A603B1D00229A603B1D0022DA6097
:10362C003B1D01211800FEF717FD031E06D08C234D
:10363C005A000F4B1100180000F02CF9FEF792FE07
:10364C000200FA2399001000FCF756FD0300180045
:10365C00FDF794FE0420FDF79FFE01235B42002240
:10366C0000211800FDF764FEC046BD4612B080BDB7
:10367C00603C000880B500AF1D4B1E4A1A601C4B05
:10368C0006225A601A4BC02212069A60184B8022EE
:10369C005204DA60164BC02292021A61144B80223B
:1036AC0052035A61124B00229A61114B0022DA61CB
:1036BC000F4B00221A620E4B00225A620C4B002256
:1036CC009A620B4B0022DA626420FCF775FF084B00
:1036DC001800FCF78EFF031E06D09D235A00064BE4
:1036EC001100180000F0D6F8C046BD4680BDC0469B
:1036FC005400002000640040603C000880B500AF1E
:10370C001E4B1F4A1A601D4B822252005A601B4BE3
:10371C0000229A60194BE022D200DA60174B022289
:10372C001A61164B01225A61144B802292009A6145
:10373C00124B1022DA61114B00221A620F4B00223D
:10374C005A620E4B00229A620C4B0722DA620B4B28
:10375C0000221A63094B00225A63084B1800FEF72B
:10376C000BFE031E06D0AA235A00064B11001800AC
:10377C0000F090F8C046BD4680BDC04698000020C1
:10378C0000300140603C000880B582B000AF0C4BAB
:10379C000B4A526901210A435A61094B5B690122A8
:1037AC0013407B607B68002200210A20FDF7C0FDDE
:1037BC000A20FDF7D3FDC046BD4602B080BDC04611
:1037CC000010024080B588B000AF304B2F4A5269D0
:1037DC00802189020A435A612C4B5A6980239B022F
:1037EC001340BB60BB68294B284A52698021C9022F
:1037FC000A435A61254B5A698023DB0213407B60D4
:10380C007B688223D9009023DB0500221800FEF789
:10381C0095F880235B011E4800221900FEF78EF8F4
:10382C000C23FB188222D2001A600C23FB180122F5
:10383C005A600C23FB1800229A600C23FB18002200
:10384C00DA600C23FA189023DB0511001800FDF741
:10385C00F9FE0C23FB18802252011A600C23FB1872
:10386C0001225A600C23FB1800229A600C23FB18CF
:10387C000022DA600C23FB18054A19001000FDF732
:10388C00E1FEC046BD4608B080BDC04600100240F7
:10389C000004004880B582B000AF78603960FEE764
:1038AC0080B582B000AF194B184A926901210A43C6
:1038BC009A61164B9B69012213407B607B68134B0A
:1038CC00124AD269802149050A43DA610F4BDA6941
:1038DC0080235B0513403B603B6805235B42002261
:1038EC0000211800FDF724FD02235B420022002179
:1038FC001800FDF71DFD01235B420022002118007A
:10390C00FDF716FDC046BD4602B080BD001002405A
:10391C0080B588B000AF78607B681B68184A93420A
:10392C002AD1184B174AD269802189040A43DA61DB
:10393C00144BDA6980239B041340BB60BB680C23D7
:10394C00FB18C02252011A600C23FB1802225A6089
:10395C000C23FB1800229A600C23FB180322DA605C
:10396C000C23FB1804221A610C23FA189023DB0594
:10397C0011001800FDF766FEC046BD4608B080BDBC
:10398C00006400400010024080B588B000AF786041
:10399C007B681B68344A934262D1344B334A926938
:1039AC00802149010A439A61304B9A6980235B015B
:1039BC001340BB60BB680C23FB18E0221A600C237D
:1039CC00FB1802225A600C23FB1800229A600C236D
:1039DC00FB180322DA600C23FB1800221A610C235B
:1039EC00FA189023DB0511001800FDF72BFE204B75
:1039FC00204A1A601E4B00225A601D4B00229A600E
:103A0C001B4B8022DA601A4B00221A61184B0022E1
:103A1C005A61174B00229A61154B0022DA61144B44
:103A2C001800FDF7DFFC031E04D0134BA321180074
:103A3C00FFF730FF1149114AA823D358F0229343C2
:103A4C00A8228B500D490D4AA823D358302213437A
:103A5C00A8228B507B68064A9A65054B7A685A6295
:103A6C00C046BD4608B080BD003001400010024089
:103A7C00FC0000201C000240703C000800000240CA
:103A8C0080B500AFC046BD4680BD000080B500AF1C
:103A9C00034B1800FFF7C2F90200024B1A60FEE755
:103AAC00980000204C00002080B500AFC046BD46F9
:103ABC0080BD80B500AFC046BD4680BD80B500AFAF
:103ACC00FCF764FDFDF782FCC046BD4680BD0000DE
:103ADC0080B500AF034B1800FDF7D8FCC046BD46BF
:103AEC0080BDC046FC00002080B500AF1A4B1A4ABE
:103AFC00126801210A431A60174B174A526817497A
:103B0C000A405A60144B144A126815490A401A604C
:103B1C00114B114A126813490A401A600E4B0E4A97
:103B2C00526811490A405A600B4B0B4AD26A0F215A
:103B3C008A43DA62084B084A126B0C490A401A6332
:103B4C00054B054A526B01218A435A63024B0022F2
:103B5C009A60C046BD4680BD001002400CB8FF08FC
:103B6C00FFFFF6FEFFFFFBFFFFFFC0FFACFEF0FF09
:103B7C000D4885460D480E490E4A002302E0D458E4
:103B8C00C4500433C4188C42F9D30B4A0B4C002399
:103B9C0001E013600432A242FBD3FFF7A5FF00F053
:103BAC0011F8FFF77FFBFEE70080002000000020EB
:103BBC001C000020E43C00081C00002040010020F8
:103BCC00FEE7000070B500260C4D0D4C641BA410D4
:103BDC00A64209D1002600F021F80A4D0A4C641BBC
:103BEC00A410A64205D170BDB300EB58984701361E
:103BFC00EEE7B300EB5898470136F2E7DC3C0008DF
:103C0C00DC3C0008DC3C0008E03C000803008218A7
:103C1C00934200D1704719700133F9E7F8B5C046EB
:103C2C00F8BC08BC9E467047F8B5C046F8BC08BC4A
:043C3C009E467047E9
:103C400002030405060708090A0B0C0D0E0F1010DD
:103C50000102030405060708090A0B0C0D0E0F10DC
:103C60002E2E5C5372635C6D61696E2E63000000E2
:103C70002E2E5C5372635C73746D333266307878C9
:103C80005F68616C5F6D73702E630000480300080D
:103C90009802000898020008960200083A030008FB
:103CA0003A03000830030008960200083A030008AF
:103CB000300300083A030008960200084003000899
:103CC0004003000840030008D00300080000000083
:0C3CD000000000000102030406070809C0
:043CDC00E5000008F7
:043CE000BD0000081B
:103CE40021402104206022002300244025C000003C
:0C3CF40023DB793D3200000000127A0052
:0400000508003B7D37
:00000001FF
